{"abi":[{"type":"constructor","inputs":[{"name":"phaseEngineAddress","type":"address","internalType":"address"},{"name":"eliminationAuthority_","type":"address","internalType":"address"}],"stateMutability":"nonpayable"},{"type":"function","name":"eliminationAuthority","inputs":[],"outputs":[{"name":"","type":"address","internalType":"address"}],"stateMutability":"view"},{"type":"function","name":"isAlive","inputs":[{"name":"lobby","type":"address","internalType":"address"},{"name":"player","type":"address","internalType":"address"}],"outputs":[{"name":"","type":"bool","internalType":"bool"}],"stateMutability":"view"},{"type":"function","name":"markEliminated","inputs":[{"name":"lobby","type":"address","internalType":"address"},{"name":"player","type":"address","internalType":"address"}],"outputs":[],"stateMutability":"nonpayable"},{"type":"function","name":"owner","inputs":[],"outputs":[{"name":"","type":"address","internalType":"address"}],"stateMutability":"view"},{"type":"function","name":"phaseEngine","inputs":[],"outputs":[{"name":"","type":"address","internalType":"contract PhaseEngine"}],"stateMutability":"view"},{"type":"function","name":"setEliminationAuthority","inputs":[{"name":"authority","type":"address","internalType":"address"}],"outputs":[],"stateMutability":"nonpayable"},{"type":"function","name":"transferOwnership","inputs":[{"name":"newOwner","type":"address","internalType":"address"}],"outputs":[],"stateMutability":"nonpayable"},{"type":"function","name":"validateDayAction","inputs":[{"name":"lobby","type":"address","internalType":"address"},{"name":"actor","type":"address","internalType":"address"}],"outputs":[],"stateMutability":"view"},{"type":"function","name":"validateNightAction","inputs":[{"name":"lobby","type":"address","internalType":"address"},{"name":"actor","type":"address","internalType":"address"},{"name":"target","type":"address","internalType":"address"}],"outputs":[],"stateMutability":"view"},{"type":"event","name":"EliminationAuthorityUpdated","inputs":[{"name":"authority","type":"address","indexed":true,"internalType":"address"}],"anonymous":false},{"type":"event","name":"OwnershipTransferred","inputs":[{"name":"previousOwner","type":"address","indexed":true,"internalType":"address"},{"name":"newOwner","type":"address","indexed":true,"internalType":"address"}],"anonymous":false},{"type":"event","name":"PlayerMarkedEliminated","inputs":[{"name":"lobby","type":"address","indexed":true,"internalType":"address"},{"name":"player","type":"address","indexed":true,"internalType":"address"}],"anonymous":false},{"type":"error","name":"InvalidAuthority","inputs":[]},{"type":"error","name":"InvalidPhase","inputs":[{"name":"expected","type":"uint8","internalType":"enum GameTypes.Phase"},{"name":"actual","type":"uint8","internalType":"enum GameTypes.Phase"}]},{"type":"error","name":"InvalidPhaseEngine","inputs":[]},{"type":"error","name":"NotAuthority","inputs":[]},{"type":"error","name":"NotOwner","inputs":[]},{"type":"error","name":"PlayerEliminated","inputs":[]},{"type":"error","name":"PlayerNotParticipant","inputs":[]}],"bytecode":{"object":"0x60a060405234801561000f575f80fd5b506040516109fa3803806109fa83398101604081905261002e91610117565b6001600160a01b0382166100555760405163429cc4ab60e01b815260040160405180910390fd5b6001600160a01b038216608052600180546001600160a01b031916339081179091556040515f907f8be0079c531659141344cd1fd0a4f28419497f9722a3daafe3b4186f6b6457e0908290a36001600160a01b038116156100f5575f80546001600160a01b0319166001600160a01b038316908117825560405190917f5a34ec82358690b54a0fac099e9c0e2515f604aabc6c090ec66222abda86f5f791a25b5050610148565b80516001600160a01b0381168114610112575f80fd5b919050565b5f8060408385031215610128575f80fd5b610131836100fc565b915061013f602084016100fc565b90509250929050565b6080516108936101675f395f8181610103015261045701526108935ff3fe608060405234801561000f575f80fd5b5060043610610090575f3560e01c8063909008a111610063578063909008a1146100fe578063a26c507814610125578063a957cdf014610138578063f2fde38b1461014b578063f8aa43f71461015e575f80fd5b80631e1450f9146100945780633d538042146100a9578063621d38a5146100d85780638da5cb5b146100eb575b5f80fd5b6100a76100a2366004610662565b610181565b005b5f546100bb906001600160a01b031681565b6040516001600160a01b0390911681526020015b60405180910390f35b6100a76100e636600461067b565b61021a565b6001546100bb906001600160a01b031681565b6100bb7f000000000000000000000000000000000000000000000000000000000000000081565b6100a761013336600461067b565b6102aa565b6100a76101463660046106ac565b6102c3565b6100a7610159366004610662565b6102f6565b61017161016c36600461067b565b6103c7565b60405190151581526020016100cf565b6001546001600160a01b031633146101ac576040516330cd747160e01b815260040160405180910390fd5b6001600160a01b0381166101d357604051636f6a1b8760e11b815260040160405180910390fd5b5f80546001600160a01b0319166001600160a01b038316908117825560405190917f5a34ec82358690b54a0fac099e9c0e2515f604aabc6c090ec66222abda86f5f791a250565b5f546001600160a01b0316331461024457604051631890934360e11b815260040160405180910390fd5b61024e8282610410565b6001600160a01b038083165f81815260026020908152604080832094861680845294909152808220805460ff19166001179055517f6bfa45db54255e69ea6fafb892ebb5f57aadd786276f6e95a63a1dfe32505c0e9190a35050565b6102b5826001610437565b6102bf828261050b565b5050565b6102ce836002610437565b6102d8838361050b565b6001600160a01b038116156102f1576102f1838261050b565b505050565b6001546001600160a01b03163314610321576040516330cd747160e01b815260040160405180910390fd5b6001600160a01b03811661036c5760405162461bcd60e51b815260206004820152600d60248201526c24a72b20a624a22fa7aba722a960991b60448201526064015b60405180910390fd5b6001546040516001600160a01b038084169216907f8be0079c531659141344cd1fd0a4f28419497f9722a3daafe3b4186f6b6457e0905f90a3600180546001600160a01b0319166001600160a01b0392909216919091179055565b6001600160a01b038083165f90815260026020908152604080832093851683529290529081205460ff16156103fd57505f61040a565b6104078383610578565b90505b92915050565b61041a8282610578565b6102bf57604051632d19bd8760e11b815260040160405180910390fd5b60405162acc9a960e21b81526001600160a01b0383811660048301525f917f0000000000000000000000000000000000000000000000000000000000000000909116906302b326a49060240160a060405180830381865afa15801561049e573d5f803e3d5ffd5b505050506040513d601f19601f820116820180604052508101906104c29190610720565b90508160048111156104d6576104d66107c2565b815160048111156104e9576104e96107c2565b146102f157805160405163098d23bb60e41b81526103639184916004016107f6565b6105158282610578565b61053257604051632d19bd8760e11b815260040160405180910390fd5b6001600160a01b038083165f9081526002602090815260408083209385168352929052205460ff16156102bf5760405163cdd4b8a760e01b815260040160405180910390fd5b6040516001600160a01b0382811660248301525f91829182919086169060440160408051601f198184030181529181526020820180516001600160e01b03166343bfa70960e11b179052516105cd9190610818565b5f60405180830381855afa9150503d805f8114610605576040519150601f19603f3d011682016040523d82523d5f602084013e61060a565b606091505b509150915081158061061b57508051155b1561062a575f9250505061040a565b8080602001905181019061063e9190610844565b95945050505050565b80356001600160a01b038116811461065d575f80fd5b919050565b5f60208284031215610672575f80fd5b61040782610647565b5f806040838503121561068c575f80fd5b61069583610647565b91506106a360208401610647565b90509250929050565b5f805f606084860312156106be575f80fd5b6106c784610647565b92506106d560208501610647565b91506106e360408501610647565b90509250925092565b80516005811061065d575f80fd5b805167ffffffffffffffff8116811461065d575f80fd5b8051801515811461065d575f80fd5b5f60a08284031215610730575f80fd5b60405160a0810181811067ffffffffffffffff8211171561075f57634e487b7160e01b5f52604160045260245ffd5b60405261076b836106ec565b8152602083015163ffffffff81168114610783575f80fd5b6020820152610794604084016106fa565b60408201526107a5606084016106ec565b60608201526107b660808401610711565b60808201529392505050565b634e487b7160e01b5f52602160045260245ffd5b600581106107f257634e487b7160e01b5f52602160045260245ffd5b9052565b6040810161080482856107d6565b61081160208301846107d6565b9392505050565b5f82515f5b81811015610837576020818601810151858301520161081d565b505f920191825250919050565b5f60208284031215610854575f80fd5b6104078261071156fea26469706673582212200bf96e898ad37c43e2d1f8ec100c76960afe4e4bf991d89091290476ad363cfb64736f6c63430008170033","linkReferences":{}},"methodIdentifiers":{"eliminationAuthority()":"3d538042","isAlive(address,address)":"f8aa43f7","markEliminated(address,address)":"621d38a5","owner()":"8da5cb5b","phaseEngine()":"909008a1","setEliminationAuthority(address)":"1e1450f9","transferOwnership(address)":"f2fde38b","validateDayAction(address,address)":"a26c5078","validateNightAction(address,address,address)":"a957cdf0"},"id":2}