{"abi":[{"type":"constructor","inputs":[{"name":"creator_","type":"address","internalType":"address"},{"name":"config_","type":"tuple","internalType":"struct GameTypes.LobbyConfig","components":[{"name":"minPlayers","type":"uint8","internalType":"uint8"},{"name":"maxPlayers","type":"uint8","internalType":"uint8"},{"name":"isPrivate","type":"bool","internalType":"bool"},{"name":"joinTimeoutSeconds","type":"uint32","internalType":"uint32"}]},{"name":"metadataURI_","type":"string","internalType":"string"},{"name":"joinCodeHash_","type":"bytes32","internalType":"bytes32"}],"stateMutability":"nonpayable"},{"type":"function","name":"createdAt","inputs":[],"outputs":[{"name":"","type":"uint256","internalType":"uint256"}],"stateMutability":"view"},{"type":"function","name":"creator","inputs":[],"outputs":[{"name":"","type":"address","internalType":"address"}],"stateMutability":"view"},{"type":"function","name":"forceLock","inputs":[],"outputs":[],"stateMutability":"nonpayable"},{"type":"function","name":"getConfig","inputs":[],"outputs":[{"name":"","type":"tuple","internalType":"struct GameTypes.LobbyConfig","components":[{"name":"minPlayers","type":"uint8","internalType":"uint8"},{"name":"maxPlayers","type":"uint8","internalType":"uint8"},{"name":"isPrivate","type":"bool","internalType":"bool"},{"name":"joinTimeoutSeconds","type":"uint32","internalType":"uint32"}]}],"stateMutability":"view"},{"type":"function","name":"getPlayers","inputs":[],"outputs":[{"name":"","type":"address[]","internalType":"address[]"}],"stateMutability":"view"},{"type":"function","name":"hasJoined","inputs":[{"name":"player","type":"address","internalType":"address"}],"outputs":[{"name":"","type":"bool","internalType":"bool"}],"stateMutability":"view"},{"type":"function","name":"join","inputs":[{"name":"inviteCode","type":"string","internalType":"string"}],"outputs":[],"stateMutability":"nonpayable"},{"type":"function","name":"joinCodeHash","inputs":[],"outputs":[{"name":"","type":"bytes32","internalType":"bytes32"}],"stateMutability":"view"},{"type":"function","name":"locked","inputs":[],"outputs":[{"name":"","type":"bool","internalType":"bool"}],"stateMutability":"view"},{"type":"function","name":"metadataURI","inputs":[],"outputs":[{"name":"","type":"string","internalType":"string"}],"stateMutability":"view"},{"type":"function","name":"playerCount","inputs":[],"outputs":[{"name":"","type":"uint256","internalType":"uint256"}],"stateMutability":"view"},{"type":"function","name":"registry","inputs":[],"outputs":[{"name":"","type":"address","internalType":"address"}],"stateMutability":"view"},{"type":"event","name":"LobbyLocked","inputs":[{"name":"timestamp","type":"uint256","indexed":false,"internalType":"uint256"}],"anonymous":false},{"type":"event","name":"PlayerJoined","inputs":[{"name":"player","type":"address","indexed":true,"internalType":"address"},{"name":"playerIndex","type":"uint256","indexed":true,"internalType":"uint256"}],"anonymous":false},{"type":"error","name":"DuplicatePlayer","inputs":[]},{"type":"error","name":"LobbyExpired","inputs":[]},{"type":"error","name":"LobbyFull","inputs":[]},{"type":"error","name":"LobbyLockedError","inputs":[]},{"type":"error","name":"LobbyPrivate","inputs":[{"name":"expectedHash","type":"bytes32","internalType":"bytes32"}]},{"type":"error","name":"NotRegistry","inputs":[]},{"type":"error","name":"Unauthorized","inputs":[]}],"bytecode":{"object":"0x61010060405234801562000011575f80fd5b5060405162000fac38038062000fac8339810160408190526200003491620003e5565b825f015160ff16836020015160ff161015620000975760405162461bcd60e51b815260206004820152601560248201527f494e56414c49445f504c415945525f434f554e5453000000000000000000000060448201526064015b60405180910390fd5b6002835f015160ff161015620000f05760405162461bcd60e51b815260206004820152601360248201527f4d494e5f504c41594552535f544f4f5f4c4f570000000000000000000000000060448201526064016200008e565b6064836020015160ff1611156200014a5760405162461bcd60e51b815260206004820152601460248201527f4d41585f504c41594552535f544f4f5f4849474800000000000000000000000060448201526064016200008e565b336080526001600160a01b03841660a05282515f805460208601516040870151606088015163ffffffff1663010000000266ffffffff0000001991151562010000029190911666ffffffffff00001960ff9384166101000261ffff1990951693909616929092179290921793909316929092179190911790556001620001d183826200054c565b5060c08190524260e052620001e684620001f0565b505050506200063e565b6001600160a01b0381165f9081526004602052604090205460ff16156200022a5760405163e6f2639b60e01b815260040160405180910390fd5b6001600160a01b0381165f818152600460205260408120805460ff19166001908117909155600380548083018255928190527fc2575a0e9e593c00f959f8c92f12db2869c3395a3b0502d05e2516446f71f85b90920180546001600160a01b031916909317909255546200029f919062000618565b6040516001600160a01b038316907f3330a6773675f31f62070870f40379f8c6d42e3761410011a4dfc42b18043d2f905f90a350565b634e487b7160e01b5f52604160045260245ffd5b604051608081016001600160401b03811182821017156200030e576200030e620002d5565b60405290565b604051601f8201601f191681016001600160401b03811182821017156200033f576200033f620002d5565b604052919050565b805160ff8116811462000358575f80fd5b919050565b5f82601f8301126200036d575f80fd5b81516001600160401b03811115620003895762000389620002d5565b60206200039f601f8301601f1916820162000314565b8281528582848701011115620003b3575f80fd5b5f5b83811015620003d2578581018301518282018401528201620003b5565b505f928101909101919091529392505050565b5f805f8084860360e0811215620003fa575f80fd5b85516001600160a01b038116811462000411575f80fd5b94506080601f198201121562000425575f80fd5b5062000430620002e9565b6200043e6020870162000347565b81526200044e6040870162000347565b60208201526060860151801515811462000466575f80fd5b6040820152608086015163ffffffff8116811462000482575f80fd5b606082015260a08601519093506001600160401b03811115620004a3575f80fd5b620004b1878288016200035d565b60c096909601519497939650505050565b600181811c90821680620004d757607f821691505b602082108103620004f657634e487b7160e01b5f52602260045260245ffd5b50919050565b601f8211156200054757805f5260205f20601f840160051c81016020851015620005235750805b601f840160051c820191505b8181101562000544575f81556001016200052f565b50505b505050565b81516001600160401b03811115620005685762000568620002d5565b6200058081620005798454620004c2565b84620004fc565b602080601f831160018114620005b6575f84156200059e5750858301515b5f19600386901b1c1916600185901b17855562000610565b5f85815260208120601f198616915b82811015620005e657888601518255948401946001909101908401620005c5565b50858210156200060457878501515f19600388901b60f8161c191681555b505060018460011b0185555b505050505050565b818103818111156200063857634e487b7160e01b5f52601160045260245ffd5b92915050565b60805160a05160c05160e051610918620006945f395f8181610291015261039901525f81816101a40152818161041b015261044f01525f818160ba015261055401525f8181610142015261052001526109185ff3fe608060405234801561000f575f80fd5b50600436106100b1575f3560e01c8063877f4e121161006e578063877f4e121461016457806389f3b3821461019f5780638b5b9ccc146101c6578063c3f909d4146101db578063cf09e0d01461028c578063cf309012146102b3575f80fd5b806302d05d3f146100b557806303ee438c146100f9578063302bcc571461010e5780636a786b07146101205780636d4908c4146101355780637b1039991461013d575b5f80fd5b6100dc7f000000000000000000000000000000000000000000000000000000000000000081565b6040516001600160a01b0390911681526020015b60405180910390f35b6101016102c0565b6040516100f0919061072a565b6003545b6040519081526020016100f0565b61013361012e366004610776565b61034c565b005b610133610515565b6100dc7f000000000000000000000000000000000000000000000000000000000000000081565b61018f6101723660046107e2565b6001600160a01b03165f9081526004602052604090205460ff1690565b60405190151581526020016100f0565b6101127f000000000000000000000000000000000000000000000000000000000000000081565b6101ce6105e8565b6040516100f0919061080f565b610247604080516080810182525f80825260208201819052918101829052606081019190915250604080516080810182525f5460ff808216835261010082048116602084015262010000820416151592820192909252630100000090910463ffffffff16606082015290565b6040516100f091905f60808201905060ff835116825260ff602084015116602083015260408301511515604083015263ffffffff606084015116606083015292915050565b6101127f000000000000000000000000000000000000000000000000000000000000000081565b60025461018f9060ff1681565b600180546102cd9061085b565b80601f01602080910402602001604051908101604052809291908181526020018280546102f99061085b565b80156103445780601f1061031b57610100808354040283529160200191610344565b820191905f5260205f20905b81548152906001019060200180831161032757829003601f168201915b505050505081565b60025460ff161561037057604051632dcf680760e11b815260040160405180910390fd5b5f546301000000900463ffffffff16156103dd575f546103bd906301000000900463ffffffff167f00000000000000000000000000000000000000000000000000000000000000006108a7565b4211156103dd5760405163d617155760e01b815260040160405180910390fd5b5f5462010000900460ff1615610481575f82826040516020016104019291906108c0565b6040516020818303038152906040528051906020012090507f0000000000000000000000000000000000000000000000000000000000000000811461047f57604051634ba18b8560e11b81527f0000000000000000000000000000000000000000000000000000000000000000600482015260240160405180910390fd5b505b5f5460035461010090910460ff16116104ad5760405163be02dee760e01b815260040160405180910390fd5b6104b633610648565b5f5460035461010090910460ff1611610511576002805460ff191660011790556040517f02049ec112f3c3743e091ea6b44b77edeb0febd6fb3bc9fe134e169e36c52a1c906105089042815260200190565b60405180910390a15b5050565b336001600160a01b037f000000000000000000000000000000000000000000000000000000000000000016148015906105775750336001600160a01b037f00000000000000000000000000000000000000000000000000000000000000001614155b15610594576040516282b42960e81b815260040160405180910390fd5b60025460ff166105e6576002805460ff191660011790556040517f02049ec112f3c3743e091ea6b44b77edeb0febd6fb3bc9fe134e169e36c52a1c906105dd9042815260200190565b60405180910390a15b565b6060600380548060200260200160405190810160405280929190818152602001828054801561063e57602002820191905f5260205f20905b81546001600160a01b03168152600190910190602001808311610620575b5050505050905090565b6001600160a01b0381165f9081526004602052604090205460ff16156106815760405163e6f2639b60e01b815260040160405180910390fd5b6001600160a01b0381165f818152600460205260408120805460ff19166001908117909155600380548083018255928190527fc2575a0e9e593c00f959f8c92f12db2869c3395a3b0502d05e2516446f71f85b90920180546001600160a01b031916909317909255546106f491906108cf565b6040516001600160a01b038316907f3330a6773675f31f62070870f40379f8c6d42e3761410011a4dfc42b18043d2f905f90a350565b5f602080835283518060208501525f5b818110156107565785810183015185820160400152820161073a565b505f604082860101526040601f19601f8301168501019250505092915050565b5f8060208385031215610787575f80fd5b823567ffffffffffffffff8082111561079e575f80fd5b818501915085601f8301126107b1575f80fd5b8135818111156107bf575f80fd5b8660208285010111156107d0575f80fd5b60209290920196919550909350505050565b5f602082840312156107f2575f80fd5b81356001600160a01b0381168114610808575f80fd5b9392505050565b602080825282518282018190525f9190848201906040850190845b8181101561084f5783516001600160a01b03168352928401929184019160010161082a565b50909695505050505050565b600181811c9082168061086f57607f821691505b60208210810361088d57634e487b7160e01b5f52602260045260245ffd5b50919050565b634e487b7160e01b5f52601160045260245ffd5b808201808211156108ba576108ba610893565b92915050565b818382375f9101908152919050565b818103818111156108ba576108ba61089356fea26469706673582212205e0e186038ac2e5d12f05e75a58d71f2d739ea2f87da8b8881e0974ea7d9f4f464736f6c63430008170033","linkReferences":{}},"methodIdentifiers":{"createdAt()":"cf09e0d0","creator()":"02d05d3f","forceLock()":"6d4908c4","getConfig()":"c3f909d4","getPlayers()":"8b5b9ccc","hasJoined(address)":"877f4e12","join(string)":"6a786b07","joinCodeHash()":"89f3b382","locked()":"cf309012","metadataURI()":"03ee438c","playerCount()":"302bcc57","registry()":"7b103999"},"id":4}