{"abi":[{"type":"constructor","inputs":[{"name":"phaseEngineAddress","type":"address","internalType":"address"},{"name":"actionValidatorAddress","type":"address","internalType":"address"}],"stateMutability":"nonpayable"},{"type":"function","name":"actionValidator","inputs":[],"outputs":[{"name":"","type":"address","internalType":"contract ActionValidator"}],"stateMutability":"view"},{"type":"function","name":"getActions","inputs":[{"name":"lobby","type":"address","internalType":"address"},{"name":"round","type":"uint32","internalType":"uint32"}],"outputs":[{"name":"","type":"tuple[]","internalType":"struct GameTypes.NightAction[]","components":[{"name":"actor","type":"address","internalType":"address"},{"name":"target","type":"address","internalType":"address"},{"name":"data","type":"bytes","internalType":"bytes"},{"name":"consumed","type":"bool","internalType":"bool"}]}],"stateMutability":"view"},{"type":"function","name":"hasSubmitted","inputs":[{"name":"lobby","type":"address","internalType":"address"},{"name":"round","type":"uint32","internalType":"uint32"},{"name":"actor","type":"address","internalType":"address"}],"outputs":[{"name":"","type":"bool","internalType":"bool"}],"stateMutability":"view"},{"type":"function","name":"markActionConsumed","inputs":[{"name":"lobby","type":"address","internalType":"address"},{"name":"round","type":"uint32","internalType":"uint32"},{"name":"actor","type":"address","internalType":"address"}],"outputs":[],"stateMutability":"nonpayable"},{"type":"function","name":"owner","inputs":[],"outputs":[{"name":"","type":"address","internalType":"address"}],"stateMutability":"view"},{"type":"function","name":"phaseEngine","inputs":[],"outputs":[{"name":"","type":"address","internalType":"contract PhaseEngine"}],"stateMutability":"view"},{"type":"function","name":"resolverAuthority","inputs":[],"outputs":[{"name":"","type":"address","internalType":"address"}],"stateMutability":"view"},{"type":"function","name":"setResolverAuthority","inputs":[{"name":"resolver","type":"address","internalType":"address"}],"outputs":[],"stateMutability":"nonpayable"},{"type":"function","name":"submitAction","inputs":[{"name":"lobby","type":"address","internalType":"address"},{"name":"target","type":"address","internalType":"address"},{"name":"data","type":"bytes","internalType":"bytes"}],"outputs":[{"name":"","type":"uint256","internalType":"uint256"}],"stateMutability":"nonpayable"},{"type":"function","name":"transferOwnership","inputs":[{"name":"newOwner","type":"address","internalType":"address"}],"outputs":[],"stateMutability":"nonpayable"},{"type":"event","name":"NightActionConsumed","inputs":[{"name":"lobby","type":"address","indexed":true,"internalType":"address"},{"name":"round","type":"uint32","indexed":true,"internalType":"uint32"},{"name":"actor","type":"address","indexed":true,"internalType":"address"}],"anonymous":false},{"type":"event","name":"NightActionSubmitted","inputs":[{"name":"lobby","type":"address","indexed":true,"internalType":"address"},{"name":"round","type":"uint32","indexed":true,"internalType":"uint32"},{"name":"actor","type":"address","indexed":true,"internalType":"address"},{"name":"target","type":"address","indexed":false,"internalType":"address"},{"name":"data","type":"bytes","indexed":false,"internalType":"bytes"}],"anonymous":false},{"type":"event","name":"OwnershipTransferred","inputs":[{"name":"previousOwner","type":"address","indexed":true,"internalType":"address"},{"name":"newOwner","type":"address","indexed":true,"internalType":"address"}],"anonymous":false},{"type":"event","name":"ResolverAuthorityUpdated","inputs":[{"name":"resolverAuthority","type":"address","indexed":true,"internalType":"address"}],"anonymous":false},{"type":"error","name":"ActionAlreadyConsumed","inputs":[]},{"type":"error","name":"ActionNotFound","inputs":[]},{"type":"error","name":"DuplicateAction","inputs":[]},{"type":"error","name":"InvalidActionValidator","inputs":[]},{"type":"error","name":"InvalidPhase","inputs":[{"name":"expected","type":"uint8","internalType":"enum GameTypes.Phase"},{"name":"actual","type":"uint8","internalType":"enum GameTypes.Phase"}]},{"type":"error","name":"InvalidPhaseEngine","inputs":[]},{"type":"error","name":"InvalidResolverAuthority","inputs":[]},{"type":"error","name":"NotOwner","inputs":[]},{"type":"error","name":"NotResolver","inputs":[]},{"type":"error","name":"RoundNotInitialized","inputs":[]}],"bytecode":{"object":"0x60c060405234801561000f575f80fd5b506040516110ea3803806110ea83398101604081905261002e916100f4565b60015f556001600160a01b0382166100595760405163429cc4ab60e01b815260040160405180910390fd5b6001600160a01b0381166100805760405163a7cb339b60e01b815260040160405180910390fd5b6001600160a01b03808316608052811660a052600180546001600160a01b031916339081179091556040515f907f8be0079c531659141344cd1fd0a4f28419497f9722a3daafe3b4186f6b6457e0908290a35050610125565b80516001600160a01b03811681146100ef575f80fd5b919050565b5f8060408385031215610105575f80fd5b61010e836100d9565b915061011c602084016100d9565b90509250929050565b60805160a051610f966101545f395f818161019e015261063401525f818161012001526105370152610f965ff3fe608060405234801561000f575f80fd5b506004361061009b575f3560e01c8063b334bc1a11610063578063b334bc1a14610142578063b48cd90f14610163578063c1958ffb14610186578063eae4a21c14610199578063f2fde38b146101c0575f80fd5b806311ae59c41461009f57806316b96bad146100b45780632a193b79146100dd5780638da5cb5b14610108578063909008a11461011b575b5f80fd5b6100b26100ad366004610aa9565b6101d3565b005b6100c76100c2366004610aeb565b610383565b6040516100d49190610b20565b60405180910390f35b6002546100f0906001600160a01b031681565b6040516001600160a01b0390911681526020016100d4565b6001546100f0906001600160a01b031681565b6100f07f000000000000000000000000000000000000000000000000000000000000000081565b610155610150366004610bf7565b6104cb565b6040519081526020016100d4565b610176610171366004610aa9565b6108d5565b60405190151581526020016100d4565b6100b2610194366004610c7e565b610913565b6100f07f000000000000000000000000000000000000000000000000000000000000000081565b6100b26101ce366004610c7e565b6109ae565b6002546001600160a01b031633148015906101f957506001546001600160a01b03163314155b1561021757604051635d154fe160e11b815260040160405180910390fd5b6001600160a01b038084165f90815260056020908152604080832063ffffffff8716845282528083209385168352929052205460ff1661026a5760405163073ec13d60e31b815260040160405180910390fd5b6001600160a01b038084165f81815260046020908152604080832063ffffffff8816808552908352818420958716845294825280832054938352600382528083209483529390529182208054919291839081106102c9576102c9610c97565b5f918252602090912060049091020180549091506001600160a01b038481169116146103085760405163073ec13d60e31b815260040160405180910390fd5b600381015460ff161561032e57604051631ab8b65b60e21b815260040160405180910390fd5b60038101805460ff191660011790556040516001600160a01b038085169163ffffffff8716918816907f0400b7307a9a206934dcb58accafbd0e1b6257e08c53dd0ddfeda8d91b324ec7905f90a45050505050565b6001600160a01b0382165f90815260036020908152604080832063ffffffff851684528252808320805482518185028101850190935280835260609492939192909184015b828210156104be575f848152602090819020604080516080810182526004860290920180546001600160a01b039081168452600182015416938301939093526002830180549293929184019161041d90610cab565b80601f016020809104026020016040519081016040528092919081815260200182805461044990610cab565b80156104945780601f1061046b57610100808354040283529160200191610494565b820191905f5260205f20905b81548152906001019060200180831161047757829003601f168201915b50505091835250506003919091015460ff16151560209182015290825260019290920191016103c8565b5050505090505b92915050565b5f60025f54036105135760405162461bcd60e51b815260206004820152600e60248201526d14915153951490539517d0d0531360921b60448201526064015b60405180910390fd5b60025f90815560405162acc9a960e21b81526001600160a01b0387811660048301527f000000000000000000000000000000000000000000000000000000000000000016906302b326a49060240160a060405180830381865afa15801561057c573d5f803e3d5ffd5b505050506040513d601f19601f820116820180604052508101906105a09190610d05565b9050806020015163ffffffff165f036105cf5760405160016236173b60e01b0319815260040160405180910390fd5b6002815160048111156105e4576105e4610da7565b1461060757805160405163098d23bb60e41b815261050a91600291600401610ddb565b604051630a957cdf60e41b81526001600160a01b03878116600483015233602483015286811660448301527f0000000000000000000000000000000000000000000000000000000000000000169063a957cdf0906064015f6040518083038186803b158015610674575f80fd5b505afa158015610686573d5f803e3d5ffd5b505050506001600160a01b0386165f9081526005602090815260408083208483015163ffffffff168452825280832033845290915290205460ff16156106df57604051633b2f04e360e21b815260040160405180910390fd5b5f6040518060800160405280336001600160a01b03168152602001876001600160a01b0316815260200186868080601f0160208091040260200160405190810160405280939291908181526020018383808284375f92018290525093855250505060209182018190526001600160a01b03808b1682526003835260408083208785015163ffffffff168452845280832080546001818101835591855293859020865160049095020180549484166001600160a01b0319958616178155948601519085018054919093169316929092179055820151919250829160028201906107c79082610e42565b50606091909101516003918201805460ff19169115159190911790556001600160a01b0388165f908152602091825260408082208584015163ffffffff1683529092529081205461081a90600190610f02565b6001600160a01b0389165f818152600460209081526040808320888301805163ffffffff90811686529184528285203380875290855283862088905586865260058552838620825184168752855283862081875290945293829020805460ff19166001179055925190519495509093911691907f0dd11b89d101435798b4bb7a943c5cd5120caf54728226eaa71ed373d9de5f3f906108be908c908c908c90610f21565b60405180910390a460015f55979650505050505050565b6001600160a01b038084165f90815260056020908152604080832063ffffffff8716845282528083209385168352929052205460ff165b9392505050565b6001546001600160a01b0316331461093e576040516330cd747160e01b815260040160405180910390fd5b6001600160a01b038116610965576040516375a4986f60e01b815260040160405180910390fd5b600280546001600160a01b0319166001600160a01b0383169081179091556040517facd2da849f6b54e2e3b958f5ca75a423d76e15f75fba92a8cacd0496e436882c905f90a250565b6001546001600160a01b031633146109d9576040516330cd747160e01b815260040160405180910390fd5b6001600160a01b038116610a1f5760405162461bcd60e51b815260206004820152600d60248201526c24a72b20a624a22fa7aba722a960991b604482015260640161050a565b6001546040516001600160a01b038084169216907f8be0079c531659141344cd1fd0a4f28419497f9722a3daafe3b4186f6b6457e0905f90a3600180546001600160a01b0319166001600160a01b0392909216919091179055565b80356001600160a01b0381168114610a90575f80fd5b919050565b63ffffffff81168114610aa6575f80fd5b50565b5f805f60608486031215610abb575f80fd5b610ac484610a7a565b92506020840135610ad481610a95565b9150610ae260408501610a7a565b90509250925092565b5f8060408385031215610afc575f80fd5b610b0583610a7a565b91506020830135610b1581610a95565b809150509250929050565b5f60208083018184528085518083526040925060408601915060408160051b8701018488015f5b83811015610be957888303603f19018552815180516001600160a01b03908116855288820151168885015286810151608088860181905281519086018190525f91905b80831015610ba8578183018b015187840160a00152918a0191610b8a565b60a092505f83828901015260609150818401519350610bca8288018515159052565b978a0197601f01601f1916959095010193505090860190600101610b47565b509098975050505050505050565b5f805f8060608587031215610c0a575f80fd5b610c1385610a7a565b9350610c2160208601610a7a565b9250604085013567ffffffffffffffff80821115610c3d575f80fd5b818701915087601f830112610c50575f80fd5b813581811115610c5e575f80fd5b886020828501011115610c6f575f80fd5b95989497505060200194505050565b5f60208284031215610c8e575f80fd5b61090c82610a7a565b634e487b7160e01b5f52603260045260245ffd5b600181811c90821680610cbf57607f821691505b602082108103610cdd57634e487b7160e01b5f52602260045260245ffd5b50919050565b634e487b7160e01b5f52604160045260245ffd5b805160058110610a90575f80fd5b5f60a08284031215610d15575f80fd5b60405160a0810167ffffffffffffffff8282108183111715610d3957610d39610ce3565b81604052610d4685610cf7565b835260208501519150610d5882610a95565b816020840152604085015191508082168214610d72575f80fd5b506040820152610d8460608401610cf7565b606082015260808301518015158114610d9b575f80fd5b60808201529392505050565b634e487b7160e01b5f52602160045260245ffd5b60058110610dd757634e487b7160e01b5f52602160045260245ffd5b9052565b60408101610de98285610dbb565b61090c6020830184610dbb565b601f821115610e3d57805f5260205f20601f840160051c81016020851015610e1b5750805b601f840160051c820191505b81811015610e3a575f8155600101610e27565b50505b505050565b815167ffffffffffffffff811115610e5c57610e5c610ce3565b610e7081610e6a8454610cab565b84610df6565b602080601f831160018114610ea3575f8415610e8c5750858301515b5f19600386901b1c1916600185901b178555610efa565b5f85815260208120601f198616915b82811015610ed157888601518255948401946001909101908401610eb2565b5085821015610eee57878501515f19600388901b60f8161c191681555b505060018460011b0185555b505050505050565b818103818111156104c557634e487b7160e01b5f52601160045260245ffd5b6001600160a01b03841681526040602082018190528101829052818360608301375f818301606090810191909152601f909201601f191601019291505056fea2646970667358221220a17595606c76a3d73b8c3ff10675c0ce75c3b2a695c0b4cd236e61355a9d5f3d64736f6c63430008170033","linkReferences":{}},"methodIdentifiers":{"actionValidator()":"eae4a21c","getActions(address,uint32)":"16b96bad","hasSubmitted(address,uint32,address)":"b48cd90f","markActionConsumed(address,uint32,address)":"11ae59c4","owner()":"8da5cb5b","phaseEngine()":"909008a1","resolverAuthority()":"2a193b79","setResolverAuthority(address)":"c1958ffb","submitAction(address,address,bytes)":"b334bc1a","transferOwnership(address)":"f2fde38b"},"id":6}