{"abi":[{"type":"constructor","inputs":[{"name":"registry_","type":"address","internalType":"address"}],"stateMutability":"nonpayable"},{"type":"function","name":"advancePhase","inputs":[{"name":"lobby","type":"address","internalType":"address"},{"name":"nextPhase","type":"uint8","internalType":"enum GameTypes.Phase"},{"name":"newDeadline","type":"uint64","internalType":"uint64"},{"name":"autoAdvanceTarget","type":"uint8","internalType":"enum GameTypes.Phase"}],"outputs":[],"stateMutability":"nonpayable"},{"type":"function","name":"currentPhase","inputs":[{"name":"lobby","type":"address","internalType":"address"}],"outputs":[{"name":"","type":"uint8","internalType":"enum GameTypes.Phase"}],"stateMutability":"view"},{"type":"function","name":"getPhaseState","inputs":[{"name":"lobby","type":"address","internalType":"address"}],"outputs":[{"name":"","type":"tuple","internalType":"struct GameTypes.PhaseState","components":[{"name":"currentPhase","type":"uint8","internalType":"enum GameTypes.Phase"},{"name":"round","type":"uint32","internalType":"uint32"},{"name":"deadline","type":"uint64","internalType":"uint64"},{"name":"scheduledPhase","type":"uint8","internalType":"enum GameTypes.Phase"},{"name":"autoAdvanceEnabled","type":"bool","internalType":"bool"}]}],"stateMutability":"view"},{"type":"function","name":"isLobbyRegistered","inputs":[{"name":"lobby","type":"address","internalType":"address"}],"outputs":[{"name":"","type":"bool","internalType":"bool"}],"stateMutability":"view"},{"type":"function","name":"registerLobby","inputs":[{"name":"lobby","type":"address","internalType":"address"}],"outputs":[],"stateMutability":"nonpayable"},{"type":"function","name":"registry","inputs":[],"outputs":[{"name":"","type":"address","internalType":"address"}],"stateMutability":"view"},{"type":"function","name":"tryAutoAdvance","inputs":[{"name":"lobby","type":"address","internalType":"address"}],"outputs":[],"stateMutability":"nonpayable"},{"type":"event","name":"AutoAdvanceCleared","inputs":[{"name":"lobby","type":"address","indexed":true,"internalType":"address"}],"anonymous":false},{"type":"event","name":"AutoAdvanceScheduled","inputs":[{"name":"lobby","type":"address","indexed":true,"internalType":"address"},{"name":"targetPhase","type":"uint8","indexed":false,"internalType":"enum GameTypes.Phase"}],"anonymous":false},{"type":"event","name":"DeadlineScheduled","inputs":[{"name":"lobby","type":"address","indexed":true,"internalType":"address"},{"name":"deadline","type":"uint64","indexed":false,"internalType":"uint64"}],"anonymous":false},{"type":"event","name":"LobbyRegistered","inputs":[{"name":"lobby","type":"address","indexed":true,"internalType":"address"}],"anonymous":false},{"type":"event","name":"PhaseAdvanced","inputs":[{"name":"lobby","type":"address","indexed":true,"internalType":"address"},{"name":"previousPhase","type":"uint8","indexed":false,"internalType":"enum GameTypes.Phase"},{"name":"newPhase","type":"uint8","indexed":false,"internalType":"enum GameTypes.Phase"},{"name":"round","type":"uint32","indexed":false,"internalType":"uint32"}],"anonymous":false},{"type":"error","name":"AutoAdvanceDisabled","inputs":[]},{"type":"error","name":"AutoAdvanceRequiresDeadline","inputs":[]},{"type":"error","name":"DeadlineInPast","inputs":[]},{"type":"error","name":"DeadlineNotReached","inputs":[]},{"type":"error","name":"InvalidAutoAdvanceTarget","inputs":[{"name":"currentPhase","type":"uint8","internalType":"enum GameTypes.Phase"},{"name":"targetPhase","type":"uint8","internalType":"enum GameTypes.Phase"}]},{"type":"error","name":"InvalidLobby","inputs":[]},{"type":"error","name":"InvalidRegistry","inputs":[]},{"type":"error","name":"InvalidTransition","inputs":[{"name":"currentPhase","type":"uint8","internalType":"enum GameTypes.Phase"},{"name":"nextPhase","type":"uint8","internalType":"enum GameTypes.Phase"}]},{"type":"error","name":"LobbyAlreadyRegistered","inputs":[]},{"type":"error","name":"LobbyNotRegistered","inputs":[]},{"type":"error","name":"NotRegistry","inputs":[]},{"type":"error","name":"UnauthorizedCaller","inputs":[]}],"bytecode":{"object":"0x60a060405234801561000f575f80fd5b50604051610e60380380610e6083398101604081905261002e9161006a565b60015f556001600160a01b038116610059576040516311a1e69760e01b815260040160405180910390fd5b6001600160a01b0316608052610097565b5f6020828403121561007a575f80fd5b81516001600160a01b0381168114610090575f80fd5b9392505050565b608051610da46100bc5f395f818160e1015281816102d501526104ea0152610da45ff3fe608060405234801561000f575f80fd5b506004361061007a575f3560e01c80637b103999116100585780637b103999146100dc57806397ac3b6f1461011b578063b649491f1461012e578063c2b9025714610141575f80fd5b806302b326a41461007e578063063d8382146100a7578063315b691c146100c7575b5f80fd5b61009161008c366004610bc6565b61017c565b60405161009e9190610c1a565b60405180910390f35b6100ba6100b5366004610bc6565b610256565b60405161009e9190610c73565b6100da6100d5366004610c95565b61027e565b005b6101037f000000000000000000000000000000000000000000000000000000000000000081565b6040516001600160a01b03909116815260200161009e565b6100da610129366004610bc6565b6103df565b6100da61013c366004610bc6565b6104df565b61016c61014f366004610bc6565b6001600160a01b03165f9081526002602052604090205460ff1690565b604051901515815260200161009e565b6040805160a0810182525f808252602082018190529181018290526060810182905260808101919091526101af826105f8565b6001600160a01b0382165f9081526001602052604090819020815160a081019092528054909190819060ff1660048111156101ec576101ec610be6565b81528254610100810463ffffffff166020830152600160281b810467ffffffffffffffff166040830152606090910190600160681b900460ff16600481111561023757610237610be6565b81529154600160701b900460ff16151560209092019190915292915050565b5f610260826105f8565b506001600160a01b03165f9081526001602052604090205460ff1690565b60025f54036102c55760405162461bcd60e51b815260206004820152600e60248201526d14915153951490539517d0d0531360921b60448201526064015b60405180910390fd5b60025f5583336001600160a01b037f0000000000000000000000000000000000000000000000000000000000000000161480159061030c5750336001600160a01b03821614155b1561032a57604051635c427cd960e01b815260040160405180910390fd5b610333856105f8565b67ffffffffffffffff8316158015906103565750428367ffffffffffffffff1611155b156103745760405163017d800b60e71b815260040160405180910390fd5b6001600160a01b0385165f9081526001602052604090206103d3868287878767ffffffffffffffff8216158015906103ce57508a60048111156103b9576103b9610be6565b8960048111156103cb576103cb610be6565b14155b610633565b505060015f5550505050565b60025f54036104215760405162461bcd60e51b815260206004820152600e60248201526d14915153951490539517d0d0531360921b60448201526064016102bc565b60025f5561042e816105f8565b6001600160a01b0381165f9081526001602052604090208054600160701b900460ff1661046e5760405163ac6dcb3d60e01b815260040160405180910390fd5b8054600160281b900467ffffffffffffffff16158061049e57508054600160281b900467ffffffffffffffff1642105b156104bc57604051633376277360e11b815260040160405180910390fd5b8054600160681b900460ff166104d68383835f8080610633565b505060015f5550565b336001600160a01b037f0000000000000000000000000000000000000000000000000000000000000000161461052857604051633217675b60e21b815260040160405180910390fd5b6001600160a01b03811661054f5760405163257c8f3360e01b815260040160405180910390fd5b6001600160a01b0381165f9081526002602052604090205460ff161561058857604051637414426d60e01b815260040160405180910390fd5b6001600160a01b0381165f818152600260209081526040808320805460ff1916600190811790915590915280822080546effffffffffffffffffffffffffffff1916815590519092917fb50c5eb2157470dc7e3f2cddab1c512e302ab70bccfe3831d99249fea38c78c091a25050565b6001600160a01b0381165f9081526002602052604090205460ff166106305760405163414eb29560e01b815260040160405180910390fd5b50565b845460ff1680600481111561064a5761064a610be6565b85600481111561065c5761065c610be6565b0361067e5780856040516305fdf05f60e31b81526004016102bc929190610cf4565b6106888186610a55565b855460ff600160701b820416908690889060ff191660018360048111156106b1576106b1610be6565b021790555060018660048111156106ca576106ca610be6565b03610753575f8260048111156106e2576106e2610be6565b036106fc57865464ffffffff001916610100178755610753565b600382600481111561071057610710610be6565b0361075357865460019088908290610734908290610100900463ffffffff16610d0f565b92506101000a81548163ffffffff021916908363ffffffff1602179055505b600486600481111561076757610767610be6565b0361081c5786546effffffffffffffffffff000000000019166001606a1b17875580156107c2576040516001600160a01b038916907f21c086c0658984899f3d792d8ea79c232c3b7d01808390fca008072f9d076d3b905f90a25b86546040516001600160a01b038a16917fffad061af71d6c3d0ab968b7c23c64da06fd50fc7c0052d7f5ba9ab7d1ca106f9161080d9186918b91610100900463ffffffff1690610d3f565b60405180910390a25050610a4d565b86546cffffffffffffffff00000000001916600160281b67ffffffffffffffff87169081029190911788556040519081526001600160a01b038916907ffbcd8c044189092c63bf91e3a726cac7542453dd265cac624ca53b819db56fde9060200160405180910390a2865460ff60701b19811688558690889061ffff60681b1916600160681b8360048111156108b4576108b4610be6565b021790555082156109bd578467ffffffffffffffff165f036108e957604051633731537160e21b815260040160405180910390fd5b8560048111156108fb576108fb610be6565b84600481111561090d5761090d610be6565b0361092f5785846040516304fa498160e11b81526004016102bc929190610cf4565b6109398685610a55565b8654600160701b60ff60701b198216811789558591899161ffff60681b1990911617600160681b83600481111561097257610972610be6565b0217905550876001600160a01b03167fb5a8653d52a9a541b80821189914de56b498a75f235eebeac859a3930b471faa856040516109b09190610c73565b60405180910390a26109f7565b80156109f7576040516001600160a01b038916907f21c086c0658984899f3d792d8ea79c232c3b7d01808390fca008072f9d076d3b905f90a25b86546040516001600160a01b038a16917fffad061af71d6c3d0ab968b7c23c64da06fd50fc7c0052d7f5ba9ab7d1ca106f91610a429186918b91610100900463ffffffff1690610d3f565b60405180910390a250505b505050505050565b5f826004811115610a6857610a68610be6565b03610aa7576001816004811115610a8157610a81610be6565b14610aa35781816040516305fdf05f60e31b81526004016102bc929190610cf4565b5050565b6001826004811115610abb57610abb610be6565b03610b35576002816004811115610ad457610ad4610be6565b14158015610af5575060035b816004811115610af257610af2610be6565b14155b8015610b1357506004816004811115610b1057610b10610be6565b14155b15610aa35781816040516305fdf05f60e31b81526004016102bc929190610cf4565b6002826004811115610b4957610b49610be6565b03610b55576003610ae0565b6003826004811115610b6957610b69610be6565b03610b75576001610ae0565b6004826004811115610b8957610b89610be6565b03610aa35781816040516305fdf05f60e31b81526004016102bc929190610cf4565b80356001600160a01b0381168114610bc1575f80fd5b919050565b5f60208284031215610bd6575f80fd5b610bdf82610bab565b9392505050565b634e487b7160e01b5f52602160045260245ffd5b60058110610c1657634e487b7160e01b5f52602160045260245ffd5b9052565b5f60a082019050610c2c828451610bfa565b63ffffffff602084015116602083015267ffffffffffffffff60408401511660408301526060830151610c626060840182610bfa565b506080928301511515919092015290565b60208101610c818284610bfa565b92915050565b803560058110610bc1575f80fd5b5f805f8060808587031215610ca8575f80fd5b610cb185610bab565b9350610cbf60208601610c87565b9250604085013567ffffffffffffffff81168114610cdb575f80fd5b9150610ce960608601610c87565b905092959194509250565b60408101610d028285610bfa565b610bdf6020830184610bfa565b63ffffffff818116838216019080821115610d3857634e487b7160e01b5f52601160045260245ffd5b5092915050565b60608101610d4d8286610bfa565b610d5a6020830185610bfa565b63ffffffff8316604083015294935050505056fea2646970667358221220fe0ae651fdb1ed7f5be9e222eec88b37ee8d9ddad2a9b5fc2c09625bccefdb8464736f6c63430008170033","linkReferences":{}},"methodIdentifiers":{"advancePhase(address,uint8,uint64,uint8)":"315b691c","currentPhase(address)":"063d8382","getPhaseState(address)":"02b326a4","isLobbyRegistered(address)":"c2b90257","registerLobby(address)":"b649491f","registry()":"7b103999","tryAutoAdvance(address)":"97ac3b6f"},"id":8}