{"abi":[{"type":"constructor","inputs":[{"name":"phaseEngineAddress","type":"address","internalType":"address"}],"stateMutability":"nonpayable"},{"type":"function","name":"getTally","inputs":[{"name":"lobby","type":"address","internalType":"address"},{"name":"round","type":"uint32","internalType":"uint32"},{"name":"target","type":"address","internalType":"address"}],"outputs":[{"name":"","type":"uint256","internalType":"uint256"}],"stateMutability":"view"},{"type":"function","name":"getTallyBatch","inputs":[{"name":"lobby","type":"address","internalType":"address"},{"name":"round","type":"uint32","internalType":"uint32"},{"name":"targets","type":"address[]","internalType":"address[]"}],"outputs":[{"name":"tallies","type":"uint256[]","internalType":"uint256[]"}],"stateMutability":"view"},{"type":"function","name":"getVoteRecord","inputs":[{"name":"lobby","type":"address","internalType":"address"},{"name":"round","type":"uint32","internalType":"uint32"},{"name":"voter","type":"address","internalType":"address"}],"outputs":[{"name":"","type":"tuple","internalType":"struct GameTypes.VoteRecord","components":[{"name":"commitment","type":"bytes32","internalType":"bytes32"},{"name":"revealed","type":"bool","internalType":"bool"},{"name":"target","type":"address","internalType":"address"}]}],"stateMutability":"view"},{"type":"function","name":"phaseEngine","inputs":[],"outputs":[{"name":"","type":"address","internalType":"contract PhaseEngine"}],"stateMutability":"view"},{"type":"function","name":"revealVote","inputs":[{"name":"lobby","type":"address","internalType":"address"},{"name":"target","type":"address","internalType":"address"},{"name":"salt","type":"bytes32","internalType":"bytes32"}],"outputs":[],"stateMutability":"nonpayable"},{"type":"function","name":"submitVote","inputs":[{"name":"lobby","type":"address","internalType":"address"},{"name":"commitment","type":"bytes32","internalType":"bytes32"}],"outputs":[],"stateMutability":"nonpayable"},{"type":"event","name":"VoteCommitted","inputs":[{"name":"lobby","type":"address","indexed":true,"internalType":"address"},{"name":"round","type":"uint32","indexed":true,"internalType":"uint32"},{"name":"voter","type":"address","indexed":true,"internalType":"address"},{"name":"commitment","type":"bytes32","indexed":false,"internalType":"bytes32"}],"anonymous":false},{"type":"event","name":"VoteRevealed","inputs":[{"name":"lobby","type":"address","indexed":true,"internalType":"address"},{"name":"round","type":"uint32","indexed":true,"internalType":"uint32"},{"name":"voter","type":"address","indexed":true,"internalType":"address"},{"name":"target","type":"address","indexed":false,"internalType":"address"},{"name":"salt","type":"bytes32","indexed":false,"internalType":"bytes32"}],"anonymous":false},{"type":"error","name":"AlreadyCommitted","inputs":[]},{"type":"error","name":"AlreadyRevealed","inputs":[]},{"type":"error","name":"CommitmentMismatch","inputs":[]},{"type":"error","name":"InvalidCommitment","inputs":[]},{"type":"error","name":"InvalidPhase","inputs":[{"name":"expectedPhase","type":"uint8","internalType":"enum GameTypes.Phase"},{"name":"actualPhase","type":"uint8","internalType":"enum GameTypes.Phase"}]},{"type":"error","name":"InvalidPhaseEngine","inputs":[]},{"type":"error","name":"InvalidRevealPhase","inputs":[{"name":"actualPhase","type":"uint8","internalType":"enum GameTypes.Phase"}]},{"type":"error","name":"NotLobbyPlayer","inputs":[]},{"type":"error","name":"RoundNotInitialized","inputs":[]},{"type":"error","name":"VoteNotCommitted","inputs":[]}],"bytecode":{"object":"0x60a060405234801561000f575f80fd5b50604051610ddd380380610ddd83398101604081905261002e9161006a565b60015f556001600160a01b0381166100595760405163429cc4ab60e01b815260040160405180910390fd5b6001600160a01b0316608052610097565b5f6020828403121561007a575f80fd5b81516001600160a01b0381168114610090575f80fd5b9392505050565b608051610d206100bd5f395f81816101280152818161036501526106d00152610d205ff3fe608060405234801561000f575f80fd5b5060043610610060575f3560e01c806344c4b345146100645780634d4e32d71461008d5780638dd942d4146100cd578063909008a1146101235780639c9f3fb314610162578063b9283e6814610177575b5f80fd5b6100776100723660046109ab565b61018a565b6040516100849190610a37565b60405180910390f35b6100a061009b366004610a7a565b610279565b6040805182518152602080840151151590820152918101516001600160a01b031690820152606001610084565b6101156100db366004610a7a565b6001600160a01b038084165f90815260026020908152604080832063ffffffff871684528252808320938516835292905220549392505050565b604051908152602001610084565b61014a7f000000000000000000000000000000000000000000000000000000000000000081565b6040516001600160a01b039091168152602001610084565b610175610170366004610abc565b6102fa565b005b610175610185366004610af5565b61064c565b60608167ffffffffffffffff8111156101a5576101a5610b1d565b6040519080825280602002602001820160405280156101ce578160200160208202803683370190505b5090505f5b82811015610270576001600160a01b0386165f90815260026020908152604080832063ffffffff8916845290915281209085858481811061021657610216610b31565b905060200201602081019061022b9190610b45565b6001600160a01b03166001600160a01b031681526020019081526020015f205482828151811061025d5761025d610b31565b60209081029190910101526001016101d3565b50949350505050565b604080516060810182525f8082526020820181905291810191909152506001600160a01b038084165f90815260016020818152604080842063ffffffff881685528252808420868616855282529283902083516060810185528154815292015460ff81161515918301919091526101009004909216908201525b9392505050565b60025f54036103415760405162461bcd60e51b815260206004820152600e60248201526d14915153951490539517d0d0531360921b60448201526064015b60405180910390fd5b60025f90815560405162acc9a960e21b81526001600160a01b0385811660048301527f000000000000000000000000000000000000000000000000000000000000000016906302b326a49060240160a060405180830381865afa1580156103aa573d5f803e3d5ffd5b505050506040513d601f19601f820116820180604052508101906103ce9190610b7b565b9050806020015163ffffffff165f036103fd5760405160016236173b60e01b0319815260040160405180910390fd5b60018151600481111561041257610412610c23565b14158015610433575060038151600481111561043057610430610c23565b14155b8015610452575060048151600481111561044f5761044f610c23565b14155b1561047357805160405163085135f360e01b81526103389190600401610c57565b61047d8433610882565b6001600160a01b0384165f9081526001602090815260408083208483015163ffffffff1684528252808320338452909152902080546104cf576040516314b100a360e11b815260040160405180910390fd5b600181015460ff16156104f55760405163a89ac15160e01b815260040160405180910390fd5b602082810151604080516bffffffffffffffffffffffff1960608a811b8216838701526001600160e01b031960e09590951b94909416603483015233841b8116603883015288841b16604c82015282810187905281518082039093018352608001905280519101208154811461057e57604051635054097b60e01b815260040160405180910390fd5b600182810180546001600160a81b0319166101006001600160a01b0389811691820292909217841790925588165f9081526002602090815260408083208883015163ffffffff168452825280832093835292905290812080549091906105e5908490610c6b565b9091555050602080840151604080516001600160a01b038981168252938101889052339363ffffffff909316928a16917f8a97ee8970dd36e9d761cc2eb8d1ada2f3395269969ac9fe55b9b3277854dee9910160405180910390a4505060015f5550505050565b60025f540361068e5760405162461bcd60e51b815260206004820152600e60248201526d14915153951490539517d0d0531360921b6044820152606401610338565b60025f55806106b057604051636033c4fd60e11b815260040160405180910390fd5b60405162acc9a960e21b81526001600160a01b0383811660048301525f917f0000000000000000000000000000000000000000000000000000000000000000909116906302b326a49060240160a060405180830381865afa158015610717573d5f803e3d5ffd5b505050506040513d601f19601f8201168201806040525081019061073b9190610b7b565b9050806020015163ffffffff165f0361076a5760405160016236173b60e01b0319815260040160405180910390fd5b60018151600481111561077f5761077f610c23565b146107a257805160405163098d23bb60e41b815261033891600191600401610c8a565b6107ac8333610882565b6001600160a01b0383165f9081526001602090815260408083208483015163ffffffff1684528252808320338452909152902080541515806107f25750600181015460ff165b15610810576040516317fd8aab60e31b815260040160405180910390fd5b8281556001810180546001600160a81b03191690556020820151604051339163ffffffff16906001600160a01b038716907fcd98203578465586819a7538a1e399f342841e23d9a5687c8de6cf110f41227c906108709088815260200190565b60405180910390a4505060015f555050565b6040516001600160a01b0382811660248301525f91829185169060440160408051601f198184030181529181526020820180516001600160e01b03166343bfa70960e11b179052516108d49190610ca5565b5f60405180830381855afa9150503d805f811461090c576040519150601f19603f3d011682016040523d82523d5f602084013e610911565b606091505b509150915081158061092257508051155b1561094057604051631ca851a360e01b815260040160405180910390fd5b5f818060200190518101906109559190610cd1565b90508061097557604051631ca851a360e01b815260040160405180910390fd5b5050505050565b80356001600160a01b0381168114610992575f80fd5b919050565b63ffffffff811681146109a8575f80fd5b50565b5f805f80606085870312156109be575f80fd5b6109c78561097c565b935060208501356109d781610997565b9250604085013567ffffffffffffffff808211156109f3575f80fd5b818701915087601f830112610a06575f80fd5b813581811115610a14575f80fd5b8860208260051b8501011115610a28575f80fd5b95989497505060200194505050565b602080825282518282018190525f9190848201906040850190845b81811015610a6e57835183529284019291840191600101610a52565b50909695505050505050565b5f805f60608486031215610a8c575f80fd5b610a958461097c565b92506020840135610aa581610997565b9150610ab36040850161097c565b90509250925092565b5f805f60608486031215610ace575f80fd5b610ad78461097c565b9250610ae56020850161097c565b9150604084013590509250925092565b5f8060408385031215610b06575f80fd5b610b0f8361097c565b946020939093013593505050565b634e487b7160e01b5f52604160045260245ffd5b634e487b7160e01b5f52603260045260245ffd5b5f60208284031215610b55575f80fd5b6102f38261097c565b805160058110610992575f80fd5b80518015158114610992575f80fd5b5f60a08284031215610b8b575f80fd5b60405160a0810167ffffffffffffffff8282108183111715610bbb57634e487b7160e01b5f52604160045260245ffd5b81604052610bc885610b5e565b835260208501519150610bda82610997565b816020840152604085015191508082168214610bf4575f80fd5b506040820152610c0660608401610b5e565b6060820152610c1760808401610b6c565b60808201529392505050565b634e487b7160e01b5f52602160045260245ffd5b60058110610c5357634e487b7160e01b5f52602160045260245ffd5b9052565b60208101610c658284610c37565b92915050565b80820180821115610c6557634e487b7160e01b5f52601160045260245ffd5b60408101610c988285610c37565b6102f36020830184610c37565b5f82515f5b81811015610cc45760208186018101518583015201610caa565b505f920191825250919050565b5f60208284031215610ce1575f80fd5b6102f382610b6c56fea2646970667358221220f99250dc4c598951905a8ce36800713deb8cb832a9d42926b9aa29b06143409364736f6c63430008170033","linkReferences":{}},"methodIdentifiers":{"getTally(address,uint32,address)":"8dd942d4","getTallyBatch(address,uint32,address[])":"44c4b345","getVoteRecord(address,uint32,address)":"4d4e32d7","phaseEngine()":"909008a1","revealVote(address,address,bytes32)":"9c9f3fb3","submitVote(address,bytes32)":"b9283e68"},"id":10}