{"abi":[{"type":"constructor","inputs":[{"name":"executor_","type":"address","internalType":"address"}],"stateMutability":"nonpayable"},{"type":"function","name":"executeNightAction","inputs":[{"name":"lobby","type":"address","internalType":"address"},{"name":"actor","type":"address","internalType":"address"},{"name":"target","type":"address","internalType":"address"},{"name":"","type":"bytes","internalType":"bytes"}],"outputs":[{"name":"effect","type":"tuple","internalType":"struct GameTypes.AbilityEffect","components":[{"name":"effectType","type":"uint8","internalType":"enum GameTypes.AbilityEffectType"},{"name":"target","type":"address","internalType":"address"},{"name":"data","type":"bytes","internalType":"bytes"}]}],"stateMutability":"nonpayable"},{"type":"function","name":"executor","inputs":[],"outputs":[{"name":"","type":"address","internalType":"address"}],"stateMutability":"view"},{"type":"event","name":"ProtectionQueued","inputs":[{"name":"lobby","type":"address","indexed":true,"internalType":"address"},{"name":"actor","type":"address","indexed":true,"internalType":"address"},{"name":"target","type":"address","indexed":true,"internalType":"address"}],"anonymous":false},{"type":"error","name":"InvalidExecutor","inputs":[]},{"type":"error","name":"InvalidTarget","inputs":[]},{"type":"error","name":"NotExecutor","inputs":[]}],"bytecode":{"object":"0x60a060405234801561000f575f80fd5b506040516103d83803806103d883398101604081905261002e91610066565b6001600160a01b0381166100555760405163710c949760e01b815260040160405180910390fd5b6001600160a01b0316608052610093565b5f60208284031215610076575f80fd5b81516001600160a01b038116811461008c575f80fd5b9392505050565b6080516103286100b05f395f81816066015260c601526103285ff3fe608060405234801561000f575f80fd5b5060043610610034575f3560e01c80637a08217714610038578063c34c08e514610061575b5f80fd5b61004b6100463660046101c9565b6100a0565b6040516100589190610263565b60405180910390f35b6100887f000000000000000000000000000000000000000000000000000000000000000081565b6040516001600160a01b039091168152602001610058565b60408051606080820183525f808352602083015291810191909152336001600160a01b037f00000000000000000000000000000000000000000000000000000000000000001614610104576040516361968ebb60e11b815260040160405180910390fd5b6001600160a01b03841661012b5760405163416aebb560e11b815260040160405180910390fd5b836001600160a01b0316856001600160a01b0316876001600160a01b03167fa63b30d3a7f8fd0035fd4a11afe5478d11bb072a386baf28d14c4573f89d73a460405160405180910390a4505060408051606081018252600281526001600160a01b03909316602080850191909152815190810182525f8152908301525092915050565b80356001600160a01b03811681146101c4575f80fd5b919050565b5f805f805f608086880312156101dd575f80fd5b6101e6866101ae565b94506101f4602087016101ae565b9350610202604087016101ae565b9250606086013567ffffffffffffffff8082111561021e575f80fd5b818801915088601f830112610231575f80fd5b81358181111561023f575f80fd5b896020828501011115610250575f80fd5b9699959850939650602001949392505050565b5f602080835283516005811061028757634e487b7160e01b5f52602160045260245ffd5b8060208501525060018060a01b036020850151166040840152604084015160608085015280518060808601525f5b818110156102d15782810184015186820160a0015283016102b5565b505f60a0828701015260a0601f19601f83011686010193505050509291505056fea26469706673582212208c64b705f7d99db51672ee41a4a3a45e854847a09fbd71ea6d46d52e0ff4a99a64736f6c63430008170033","linkReferences":{}},"methodIdentifiers":{"executeNightAction(address,address,address,bytes)":"7a082177","executor()":"c34c08e5"},"id":15}