{"abi":[{"type":"constructor","inputs":[{"name":"phaseEngineAddress","type":"address","internalType":"address"},{"name":"validatorAddress","type":"address","internalType":"address"},{"name":"nightRegistryAddress","type":"address","internalType":"address"},{"name":"playerStateAddress","type":"address","internalType":"address"}],"stateMutability":"nonpayable"},{"type":"function","name":"actionValidator","inputs":[],"outputs":[{"name":"","type":"address","internalType":"contract ActionValidator"}],"stateMutability":"view"},{"type":"function","name":"getAbility","inputs":[{"name":"abilityId","type":"bytes32","internalType":"bytes32"}],"outputs":[{"name":"","type":"address","internalType":"address"}],"stateMutability":"view"},{"type":"function","name":"nightRegistry","inputs":[],"outputs":[{"name":"","type":"address","internalType":"contract NightActionRegistry"}],"stateMutability":"view"},{"type":"function","name":"owner","inputs":[],"outputs":[{"name":"","type":"address","internalType":"address"}],"stateMutability":"view"},{"type":"function","name":"phaseEngine","inputs":[],"outputs":[{"name":"","type":"address","internalType":"contract PhaseEngine"}],"stateMutability":"view"},{"type":"function","name":"playerState","inputs":[],"outputs":[{"name":"","type":"address","internalType":"contract PlayerState"}],"stateMutability":"view"},{"type":"function","name":"registerAbility","inputs":[{"name":"abilityId","type":"bytes32","internalType":"bytes32"},{"name":"ability","type":"address","internalType":"address"}],"outputs":[],"stateMutability":"nonpayable"},{"type":"function","name":"resolveNight","inputs":[{"name":"lobby","type":"address","internalType":"address"}],"outputs":[],"stateMutability":"nonpayable"},{"type":"function","name":"transferOwnership","inputs":[{"name":"newOwner","type":"address","internalType":"address"}],"outputs":[],"stateMutability":"nonpayable"},{"type":"function","name":"unregisterAbility","inputs":[{"name":"abilityId","type":"bytes32","internalType":"bytes32"}],"outputs":[],"stateMutability":"nonpayable"},{"type":"event","name":"AbilityRegistered","inputs":[{"name":"abilityId","type":"bytes32","indexed":true,"internalType":"bytes32"},{"name":"ability","type":"address","indexed":true,"internalType":"address"}],"anonymous":false},{"type":"event","name":"AbilityUnregistered","inputs":[{"name":"abilityId","type":"bytes32","indexed":true,"internalType":"bytes32"}],"anonymous":false},{"type":"event","name":"NightActionExecuted","inputs":[{"name":"lobby","type":"address","indexed":true,"internalType":"address"},{"name":"round","type":"uint32","indexed":true,"internalType":"uint32"},{"name":"actor","type":"address","indexed":true,"internalType":"address"},{"name":"abilityId","type":"bytes32","indexed":false,"internalType":"bytes32"},{"name":"effectType","type":"uint8","indexed":false,"internalType":"enum GameTypes.AbilityEffectType"},{"name":"target","type":"address","indexed":false,"internalType":"address"}],"anonymous":false},{"type":"event","name":"NightActionSkipped","inputs":[{"name":"lobby","type":"address","indexed":true,"internalType":"address"},{"name":"round","type":"uint32","indexed":true,"internalType":"uint32"},{"name":"actor","type":"address","indexed":true,"internalType":"address"},{"name":"abilityId","type":"bytes32","indexed":false,"internalType":"bytes32"}],"anonymous":false},{"type":"event","name":"OwnershipTransferred","inputs":[{"name":"previousOwner","type":"address","indexed":true,"internalType":"address"},{"name":"newOwner","type":"address","indexed":true,"internalType":"address"}],"anonymous":false},{"type":"error","name":"AbilityAlreadyRegistered","inputs":[]},{"type":"error","name":"AbilityNotRegistered","inputs":[]},{"type":"error","name":"InvalidAbility","inputs":[]},{"type":"error","name":"InvalidActionValidator","inputs":[]},{"type":"error","name":"InvalidNightActionRegistry","inputs":[]},{"type":"error","name":"InvalidPhase","inputs":[{"name":"expected","type":"uint8","internalType":"enum GameTypes.Phase"},{"name":"actual","type":"uint8","internalType":"enum GameTypes.Phase"}]},{"type":"error","name":"InvalidPhaseEngine","inputs":[]},{"type":"error","name":"InvalidPlayerState","inputs":[]},{"type":"error","name":"NotOwner","inputs":[]},{"type":"error","name":"RoundNotInitialized","inputs":[]}],"bytecode":{"object":"0x61010060405234801562000011575f80fd5b5060405162001a5438038062001a5483398101604081905262000034916200015b565b60015f556001600160a01b038416620000605760405163429cc4ab60e01b815260040160405180910390fd5b6001600160a01b038316620000885760405163a7cb339b60e01b815260040160405180910390fd5b6001600160a01b038216620000b05760405163247f34b760e11b815260040160405180910390fd5b6001600160a01b038116620000d75760405162b1fe5760e21b815260040160405180910390fd5b6001600160a01b0380851660805283811660a05282811660c052811660e052600280546001600160a01b031916339081179091556040515f907f8be0079c531659141344cd1fd0a4f28419497f9722a3daafe3b4186f6b6457e0908290a350505050620001b5565b80516001600160a01b038116811462000156575f80fd5b919050565b5f805f80608085870312156200016f575f80fd5b6200017a856200013f565b93506200018a602086016200013f565b92506200019a604086016200013f565b9150620001aa606086016200013f565b905092959194509250565b60805160a05160c05160e051611803620002515f395f818161017101528181610426015281816105400152818161097d01528181610a1e01528181610b3b01528181611081015261118a01525f818160a40152818161034e015281816104c0015281816107b30152610c4701525f81816101ab01528181610669015281816107180152610add01525f818161010f015261024b01526118035ff3fe608060405234801561000f575f80fd5b506004361061009b575f3560e01c8063ab20474811610063578063ab20474814610144578063bc173c5f1461016c578063e580511114610193578063eae4a21c146101a6578063f2fde38b146101cd575f80fd5b8063628884911461009f57806387ea329b146100e25780638da5cb5b146100f7578063909008a11461010a578063974a434914610131575b5f80fd5b6100c67f000000000000000000000000000000000000000000000000000000000000000081565b6040516001600160a01b03909116815260200160405180910390f35b6100f56100f0366004611203565b6101e0565b005b6002546100c6906001600160a01b031681565b6100c67f000000000000000000000000000000000000000000000000000000000000000081565b6100f561013f366004611225565b610d8f565b6100c6610152366004611253565b5f908152600160205260409020546001600160a01b031690565b6100c67f000000000000000000000000000000000000000000000000000000000000000081565b6100f56101a1366004611253565b610e6e565b6100c67f000000000000000000000000000000000000000000000000000000000000000081565b6100f56101db366004611203565b610f12565b60025f54036102275760405162461bcd60e51b815260206004820152600e60248201526d14915153951490539517d0d0531360921b60448201526064015b60405180910390fd5b60025f90815560405162acc9a960e21b81526001600160a01b0383811660048301527f000000000000000000000000000000000000000000000000000000000000000016906302b326a49060240160a060405180830381865afa158015610290573d5f803e3d5ffd5b505050506040513d601f19601f820116820180604052508101906102b49190611303565b9050806020015163ffffffff165f036102e35760405160016236173b60e01b0319815260040160405180910390fd5b6002815160048111156102f8576102f86113ab565b1461031b57805160405163098d23bb60e41b815261021e916002916004016113db565b60208101516040516316b96bad60e01b81526001600160a01b03848116600483015263ffffffff90921660248201525f917f000000000000000000000000000000000000000000000000000000000000000016906316b96bad906044015f60405180830381865afa158015610392573d5f803e3d5ffd5b505050506040513d5f823e601f3d908101601f191682016040526103b9919081019061148c565b90505f5b8151811015610d85575f8282815181106103d9576103d96115af565b602002602001015190508060600151156103f35750610d7d565b5f806104028360400151610fde565b84516020890151604051635d8188a360e01b81529395509193506001600160a01b037f00000000000000000000000000000000000000000000000000000000000000001692635d8188a39261045e928c929091906004016115c3565b602060405180830381865afa158015610479573d5f803e3d5ffd5b505050506040513d601f19601f8201168201806040525081019061049d91906115ec565b15610609576020860151835160405163046b967160e21b81526001600160a01b037f000000000000000000000000000000000000000000000000000000000000000016926311ae59c4926104f7928c929190600401611605565b5f604051808303815f87803b15801561050e575f80fd5b505af1158015610520573d5f803e3d5ffd5b50508451602089015160405163b1677b5960e01b81526001600160a01b037f000000000000000000000000000000000000000000000000000000000000000016945063b1677b599350610579928c9290916004016115c3565b5f604051808303815f87803b158015610590575f80fd5b505af11580156105a2573d5f803e3d5ffd5b50505050825f01516001600160a01b0316866020015163ffffffff16886001600160a01b03167f88aa2142237198a24e580e69f5d40770fa59e82c595fcd4fa4200fe43578fd89856040516105f991815260200190565b60405180910390a4505050610d7d565b5f828152600160205260409020546001600160a01b03168061063e576040516311a5bea560e11b815260040160405180910390fd5b835160405163f8aa43f760e01b81526001600160a01b038a8116600483015291821660248201525f917f0000000000000000000000000000000000000000000000000000000000000000169063f8aa43f790604401602060405180830381865afa1580156106ae573d5f803e3d5ffd5b505050506040513d601f19601f820116820180604052508101906106d291906115ec565b60208601519091505f906001600160a01b031615806107835750602086015160405163f8aa43f760e01b81526001600160a01b038c8116600483015291821660248201527f00000000000000000000000000000000000000000000000000000000000000009091169063f8aa43f790604401602060405180830381865afa15801561075f573d5f803e3d5ffd5b505050506040513d601f19601f8201168201806040525081019061078391906115ec565b9050811580610790575080155b1561087d576020890151865160405163046b967160e21b81526001600160a01b037f000000000000000000000000000000000000000000000000000000000000000016926311ae59c4926107ea928f929190600401611605565b5f604051808303815f87803b158015610801575f80fd5b505af1158015610813573d5f803e3d5ffd5b50505050855f01516001600160a01b0316896020015163ffffffff168b6001600160a01b03167f88aa2142237198a24e580e69f5d40770fa59e82c595fcd4fa4200fe43578fd898860405161086a91815260200190565b60405180910390a4505050505050610d7d565b5f836001600160a01b0316637a0821778c895f01518a60200151896040518563ffffffff1660e01b81526004016108b7949392919061162e565b5f604051808303815f875af11580156108d2573d5f803e3d5ffd5b505050506040513d5f823e601f3d908101601f191682016040526108f99190810190611683565b9050600281516004811115610910576109106113ab565b036109da5760208101515f906001600160a01b03161561093457816020015161093a565b87602001515b60208c0151604051631bbcaf1560e01b81526001600160a01b038f81166004830152808416602483015263ffffffff9092166044820152600160648201529192507f00000000000000000000000000000000000000000000000000000000000000001690631bbcaf15906084015f604051808303815f87803b1580156109be575f80fd5b505af11580156109d0573d5f803e3d5ffd5b5050505050610c45565b6001815160048111156109ef576109ef6113ab565b03610bc25760208101515f906001600160a01b031615610a13578160200151610a19565b87602001515b90505f7f00000000000000000000000000000000000000000000000000000000000000006001600160a01b03166352f901fa8e848f602001516040518463ffffffff1660e01b8152600401610a70939291906115c3565b602060405180830381865afa158015610a8b573d5f803e3d5ffd5b505050506040513d601f19601f82011682018060405250810190610aaf91906115ec565b905080610b395760405163621d38a560e01b81526001600160a01b038e8116600483015283811660248301527f0000000000000000000000000000000000000000000000000000000000000000169063621d38a5906044015f604051808303815f87803b158015610b1e575f80fd5b505af1158015610b30573d5f803e3d5ffd5b50505050610bbb565b7f00000000000000000000000000000000000000000000000000000000000000006001600160a01b031663f53581768e848f602001516040518463ffffffff1660e01b8152600401610b8d939291906115c3565b5f604051808303815f87803b158015610ba4575f80fd5b505af1158015610bb6573d5f803e3d5ffd5b505050505b5050610c45565b600481516004811115610bd757610bd76113ab565b03610c185760208101515f906001600160a01b031615610bfb578160200151610c01565b87602001515b9050610c128c828d60200151611020565b50610c45565b600381516004811115610c2d57610c2d6113ab565b03610c4557610c458b885f0151838d602001516110dd565b7f00000000000000000000000000000000000000000000000000000000000000006001600160a01b03166311ae59c48c8c602001518a5f01516040518463ffffffff1660e01b8152600401610c9c93929190611605565b5f604051808303815f87803b158015610cb3575f80fd5b505af1158015610cc5573d5f803e3d5ffd5b505050506020810151600382516004811115610ce357610ce36113ab565b03610cff576001600160a01b038116610cfa575086515b610d14565b6001600160a01b038116610d14575060208701515b875f01516001600160a01b03168b6020015163ffffffff168d6001600160a01b03167f291e539e3885d26e8ff2abcd2fc1b016c24a9c97d7a3e87fb79fcc63def95fd38a865f015186604051610d6c93929190611727565b60405180910390a450505050505050505b6001016103bd565b505060015f555050565b6002546001600160a01b03163314610dba576040516330cd747160e01b815260040160405180910390fd5b6001600160a01b038116610de157604051630377afcb60e51b815260040160405180910390fd5b5f828152600160205260409020546001600160a01b031615610e16576040516306d5733160e51b815260040160405180910390fd5b5f8281526001602052604080822080546001600160a01b0319166001600160a01b0385169081179091559051909184917fc1ccf8508579fe37dd9c506590b1487897fd3f3628d78d7cf248a3090859bf989190a35050565b6002546001600160a01b03163314610e99576040516330cd747160e01b815260040160405180910390fd5b5f818152600160205260409020546001600160a01b0316610ecd576040516311a5bea560e11b815260040160405180910390fd5b5f8181526001602052604080822080546001600160a01b03191690555182917f1aefb3a2039a40f240698aa22631416f6dd5d607b3ef0607d2cacabdb87df8bf91a250565b6002546001600160a01b03163314610f3d576040516330cd747160e01b815260040160405180910390fd5b6001600160a01b038116610f835760405162461bcd60e51b815260206004820152600d60248201526c24a72b20a624a22fa7aba722a960991b604482015260640161021e565b6002546040516001600160a01b038084169216907f8be0079c531659141344cd1fd0a4f28419497f9722a3daafe3b4186f6b6457e0905f90a3600280546001600160a01b0319166001600160a01b0392909216919091179055565b5f606082515f0361100257604051630377afcb60e51b815260040160405180910390fd5b828060200190518101906110169190611756565b9094909350915050565b6001600160a01b03821661104757604051630377afcb60e51b815260040160405180910390fd5b60405163939f478960e01b81526001600160a01b038481166004830152838116602483015263ffffffff83166044830152600160648301527f0000000000000000000000000000000000000000000000000000000000000000169063939f4789906084015f604051808303815f87803b1580156110c2575f80fd5b505af11580156110d4573d5f803e3d5ffd5b50505050505050565b5f8083604001518060200190518101906110f7919061179a565b90925090506001600160a01b03821661112357604051630377afcb60e51b815260040160405180910390fd5b60208401515f906001600160a01b031615611142578460200151611144565b855b604051635d264f5360e01b81526001600160a01b03898116600483015280831660248301528581166044830152841515606483015263ffffffff871660848301529192507f000000000000000000000000000000000000000000000000000000000000000090911690635d264f539060a4015f604051808303815f87803b1580156111cd575f80fd5b505af11580156111df573d5f803e3d5ffd5b5050505050505050505050565b6001600160a01b0381168114611200575f80fd5b50565b5f60208284031215611213575f80fd5b813561121e816111ec565b9392505050565b5f8060408385031215611236575f80fd5b823591506020830135611248816111ec565b809150509250929050565b5f60208284031215611263575f80fd5b5035919050565b634e487b7160e01b5f52604160045260245ffd5b6040516080810167ffffffffffffffff811182821017156112a1576112a161126a565b60405290565b604051601f8201601f1916810167ffffffffffffffff811182821017156112d0576112d061126a565b604052919050565b60058110611200575f80fd5b80516112ef816112d8565b919050565b805180151581146112ef575f80fd5b5f60a08284031215611313575f80fd5b60405160a0810167ffffffffffffffff82821081831117156113375761133761126a565b8160405284519150611348826112d8565b90825260208401519063ffffffff82168214611362575f80fd5b81602084015260408501519150808216821461137c575f80fd5b50604082015261138e606084016112e4565b606082015261139f608084016112f4565b60808201529392505050565b634e487b7160e01b5f52602160045260245ffd5b6005811061120057634e487b7160e01b5f52602160045260245ffd5b604081016113e8846113bf565b8382526113f4836113bf565b8260208301529392505050565b5f5b8381101561141b578181015183820152602001611403565b50505f910152565b5f82601f830112611432575f80fd5b815167ffffffffffffffff81111561144c5761144c61126a565b61145f601f8201601f19166020016112a7565b818152846020838601011115611473575f80fd5b611484826020830160208701611401565b949350505050565b5f602080838503121561149d575f80fd5b825167ffffffffffffffff808211156114b4575f80fd5b818501915085601f8301126114c7575f80fd5b8151818111156114d9576114d961126a565b8060051b6114e88582016112a7565b9182528381018501918581019089841115611501575f80fd5b86860192505b838310156115a25782518581111561151d575f80fd5b86016080818c03601f19011215611532575f80fd5b61153a61127e565b88820151611547816111ec565b8152604082810151611558816111ec565b828b01526060838101518981111561156e575f80fd5b61157c8f8d83880101611423565b838501525061158d608085016112f4565b90830152508352509186019190860190611507565b9998505050505050505050565b634e487b7160e01b5f52603260045260245ffd5b6001600160a01b03938416815291909216602082015263ffffffff909116604082015260600190565b5f602082840312156115fc575f80fd5b61121e826112f4565b6001600160a01b03938416815263ffffffff929092166020830152909116604082015260600190565b5f60018060a01b038087168352808616602084015280851660408401525060806060830152825180608084015261166c8160a0850160208701611401565b601f01601f19169190910160a00195945050505050565b5f60208284031215611693575f80fd5b815167ffffffffffffffff808211156116aa575f80fd5b90830190606082860312156116bd575f80fd5b6040516060810181811083821117156116d8576116d861126a565b60405282516116e6816112d8565b815260208301516116f6816111ec565b602082015260408301518281111561170c575f80fd5b61171887828601611423565b60408301525095945050505050565b83815260608101611737846113bf565b60208201939093526001600160a01b0391909116604090910152919050565b5f8060408385031215611767575f80fd5b82519150602083015167ffffffffffffffff811115611784575f80fd5b61179085828601611423565b9150509250929050565b5f80604083850312156117ab575f80fd5b82516117b6816111ec565b91506117c4602084016112f4565b9050925092905056fea2646970667358221220f818fbefbf84b9b0f0590c771c16d6cfe181be29e51294ca9dfc1d44aaf5a73464736f6c63430008170033","linkReferences":{}},"methodIdentifiers":{"actionValidator()":"eae4a21c","getAbility(bytes32)":"ab204748","nightRegistry()":"62888491","owner()":"8da5cb5b","phaseEngine()":"909008a1","playerState()":"bc173c5f","registerAbility(bytes32,address)":"974a4349","resolveNight(address)":"87ea329b","transferOwnership(address)":"f2fde38b","unregisterAbility(bytes32)":"e5805111"},"id":9}