{"abi":[{"type":"function","name":"applyProtection","inputs":[{"name":"lobby","type":"address","internalType":"address"},{"name":"player","type":"address","internalType":"address"},{"name":"round","type":"uint32","internalType":"uint32"},{"name":"duration","type":"uint32","internalType":"uint32"}],"outputs":[],"stateMutability":"nonpayable"},{"type":"function","name":"applyRoleblock","inputs":[{"name":"lobby","type":"address","internalType":"address"},{"name":"player","type":"address","internalType":"address"},{"name":"round","type":"uint32","internalType":"uint32"},{"name":"duration","type":"uint32","internalType":"uint32"}],"outputs":[],"stateMutability":"nonpayable"},{"type":"function","name":"clearProtection","inputs":[{"name":"lobby","type":"address","internalType":"address"},{"name":"player","type":"address","internalType":"address"},{"name":"round","type":"uint32","internalType":"uint32"}],"outputs":[],"stateMutability":"nonpayable"},{"type":"function","name":"clearRoleblock","inputs":[{"name":"lobby","type":"address","internalType":"address"},{"name":"player","type":"address","internalType":"address"},{"name":"round","type":"uint32","internalType":"uint32"}],"outputs":[],"stateMutability":"nonpayable"},{"type":"function","name":"getInvestigationResult","inputs":[{"name":"lobby","type":"address","internalType":"address"},{"name":"investigator","type":"address","internalType":"address"}],"outputs":[{"name":"","type":"tuple","internalType":"struct PlayerState.InvestigationRecord","components":[{"name":"round","type":"uint32","internalType":"uint32"},{"name":"target","type":"address","internalType":"address"},{"name":"isMafia","type":"bool","internalType":"bool"}]}],"stateMutability":"view"},{"type":"function","name":"isProtected","inputs":[{"name":"lobby","type":"address","internalType":"address"},{"name":"player","type":"address","internalType":"address"},{"name":"round","type":"uint32","internalType":"uint32"}],"outputs":[{"name":"","type":"bool","internalType":"bool"}],"stateMutability":"view"},{"type":"function","name":"isRoleblocked","inputs":[{"name":"lobby","type":"address","internalType":"address"},{"name":"player","type":"address","internalType":"address"},{"name":"round","type":"uint32","internalType":"uint32"}],"outputs":[{"name":"","type":"bool","internalType":"bool"}],"stateMutability":"view"},{"type":"function","name":"recordInvestigationResult","inputs":[{"name":"lobby","type":"address","internalType":"address"},{"name":"investigator","type":"address","internalType":"address"},{"name":"target","type":"address","internalType":"address"},{"name":"isMafia","type":"bool","internalType":"bool"},{"name":"round","type":"uint32","internalType":"uint32"}],"outputs":[],"stateMutability":"nonpayable"},{"type":"event","name":"InvestigationRecorded","inputs":[{"name":"lobby","type":"address","indexed":true,"internalType":"address"},{"name":"round","type":"uint32","indexed":true,"internalType":"uint32"},{"name":"investigator","type":"address","indexed":true,"internalType":"address"},{"name":"target","type":"address","indexed":false,"internalType":"address"},{"name":"isMafia","type":"bool","indexed":false,"internalType":"bool"}],"anonymous":false},{"type":"event","name":"ProtectionApplied","inputs":[{"name":"lobby","type":"address","indexed":true,"internalType":"address"},{"name":"round","type":"uint32","indexed":true,"internalType":"uint32"},{"name":"player","type":"address","indexed":true,"internalType":"address"},{"name":"expiresRound","type":"uint32","indexed":false,"internalType":"uint32"}],"anonymous":false},{"type":"event","name":"ProtectionCleared","inputs":[{"name":"lobby","type":"address","indexed":true,"internalType":"address"},{"name":"round","type":"uint32","indexed":true,"internalType":"uint32"},{"name":"player","type":"address","indexed":true,"internalType":"address"}],"anonymous":false},{"type":"event","name":"RoleblockApplied","inputs":[{"name":"lobby","type":"address","indexed":true,"internalType":"address"},{"name":"round","type":"uint32","indexed":true,"internalType":"uint32"},{"name":"player","type":"address","indexed":true,"internalType":"address"},{"name":"expiresRound","type":"uint32","indexed":false,"internalType":"uint32"}],"anonymous":false},{"type":"event","name":"RoleblockCleared","inputs":[{"name":"lobby","type":"address","indexed":true,"internalType":"address"},{"name":"round","type":"uint32","indexed":true,"internalType":"uint32"},{"name":"player","type":"address","indexed":true,"internalType":"address"}],"anonymous":false},{"type":"error","name":"InvalidInvestigator","inputs":[]},{"type":"error","name":"InvalidLobby","inputs":[]},{"type":"error","name":"InvalidTarget","inputs":[]}],"bytecode":{"object":"0x608060405234801561000f575f80fd5b506108cf8061001d5f395ff3fe608060405234801561000f575f80fd5b5060043610610085575f3560e01c8063939f478911610058578063939f4789146100ec578063ac03812e146100ff578063b1677b59146101b4578063f5358176146101c7575f80fd5b80631bbcaf151461008957806352f901fa1461009e5780635d264f53146100c65780635d8188a3146100d9575b5f80fd5b61009c610097366004610740565b6101da565b005b6100b16100ac366004610791565b6102ca565b60405190151581526020015b60405180910390f35b61009c6100d43660046107d1565b61033d565b6100b16100e7366004610791565b610488565b61009c6100fa366004610740565b6104fd565b61018161010d366004610838565b60408051606080820183525f80835260208084018290529284018190526001600160a01b03958616815260018352838120948616815293825292829020825193840183525463ffffffff81168452640100000000810490941690830152600160c01b90920460ff1615159181019190915290565b60408051825163ffffffff1681526020808401516001600160a01b031690820152918101511515908201526060016100bd565b61009c6101c2366004610791565b6105e3565b61009c6101d5366004610791565b61067d565b6001600160a01b03841615806101f757506001600160a01b038316155b156102155760405163257c8f3360e01b815260040160405180910390fd5b5f6102208284610869565b60408051808201825263ffffffff86811680835284821660208085018281526001600160a01b038d81165f818152808552898120928f1680825292855289902097518854935188166401000000000267ffffffffffffffff199094169716969096179190911790955594519081529495509193919290917f53e3260e1a9d7cf7e27526f74f5735b13618d64a109fea848bfc452a7f456f0891015b60405180910390a45050505050565b6001600160a01b038084165f90815260208181526040808320938616835292815282822083518085019094525463ffffffff8082168086526401000000009092041691840191909152909190158015906103345750806020015163ffffffff168363ffffffff1611155b95945050505050565b6001600160a01b0385166103645760405163257c8f3360e01b815260040160405180910390fd5b6001600160a01b03841661038b57604051631ef416f960e11b815260040160405180910390fd5b6001600160a01b0383166103b25760405163416aebb560e11b815260040160405180910390fd5b6040805160608101825263ffffffff8084168083526001600160a01b0380881660208086019182528815158688019081528c84165f818152600184528981208e8716808352945289902097518854945192511515600160c01b0260ff60c01b1993909616640100000000026001600160c01b031990951697169690961792909217919091169190911790935592519192917f9e5aa77721e83395fd011dbdad3460d7654ebb355367efa277d415ed60508232906102bb90889088906001600160a01b039290921682521515602082015260400190565b6001600160a01b038084165f908152600260209081526040808320938616835292815282822083518085019094525463ffffffff8082168086526401000000009092041691840191909152909190158015906103345750806020015163ffffffff168363ffffffff1611159150509392505050565b6001600160a01b038416158061051a57506001600160a01b038316155b156105385760405163257c8f3360e01b815260040160405180910390fd5b5f6105438284610869565b60408051808201825263ffffffff86811680835284821660208085018281526001600160a01b038d81165f81815260028552898120928f1680825292855289902097518854935188166401000000000267ffffffffffffffff199094169716969096179190911790955594519081529495509193919290917fcf0fce030d52ec505b6cff8d8f6422cc6bcbab218ceaa10d44e2d0c4df16154591016102bb565b6001600160a01b038084165f9081526002602090815260408083209386168352929052205463ffffffff1615610678576001600160a01b038084165f81815260026020908152604080832094871680845294909152808220805467ffffffffffffffff191690555163ffffffff851692917f8e4ac34bc2a4e4c0d786a8762392673ada3974edcb1571d6bfae1e5df0864c3291a45b505050565b6001600160a01b038084165f908152602081815260408083209386168352929052205463ffffffff1615610678576001600160a01b038084165f8181526020818152604080832094871680845294909152808220805467ffffffffffffffff191690555163ffffffff851692917f24b14c1c396c52a014a5da95c871fd466b896e7a4534aa2b21e175419c96f6ac91a4505050565b80356001600160a01b0381168114610728575f80fd5b919050565b803563ffffffff81168114610728575f80fd5b5f805f8060808587031215610753575f80fd5b61075c85610712565b935061076a60208601610712565b92506107786040860161072d565b91506107866060860161072d565b905092959194509250565b5f805f606084860312156107a3575f80fd5b6107ac84610712565b92506107ba60208501610712565b91506107c86040850161072d565b90509250925092565b5f805f805f60a086880312156107e5575f80fd5b6107ee86610712565b94506107fc60208701610712565b935061080a60408701610712565b92506060860135801515811461081e575f80fd5b915061082c6080870161072d565b90509295509295909350565b5f8060408385031215610849575f80fd5b61085283610712565b915061086060208401610712565b90509250929050565b63ffffffff81811683821601908082111561089257634e487b7160e01b5f52601160045260245ffd5b509291505056fea26469706673582212207406eaccd71faf551e74dd4c6a85e40bdb963a5f01c1bfb79605a270a6c597ef64736f6c63430008170033","linkReferences":{}},"methodIdentifiers":{"applyProtection(address,address,uint32,uint32)":"1bbcaf15","applyRoleblock(address,address,uint32,uint32)":"939f4789","clearProtection(address,address,uint32)":"f5358176","clearRoleblock(address,address,uint32)":"b1677b59","getInvestigationResult(address,address)":"ac03812e","isProtected(address,address,uint32)":"52f901fa","isRoleblocked(address,address,uint32)":"5d8188a3","recordInvestigationResult(address,address,address,bool,uint32)":"5d264f53"},"id":11}