{"abi":[{"type":"constructor","inputs":[{"name":"phaseEngineAddress","type":"address","internalType":"address"},{"name":"voteRegistryAddress","type":"address","internalType":"address"}],"stateMutability":"nonpayable"},{"type":"function","name":"actionValidator","inputs":[],"outputs":[{"name":"","type":"address","internalType":"contract ActionValidator"}],"stateMutability":"view"},{"type":"function","name":"owner","inputs":[],"outputs":[{"name":"","type":"address","internalType":"address"}],"stateMutability":"view"},{"type":"function","name":"phaseEngine","inputs":[],"outputs":[{"name":"","type":"address","internalType":"contract PhaseEngine"}],"stateMutability":"view"},{"type":"function","name":"resolveDay","inputs":[{"name":"lobby","type":"address","internalType":"address"}],"outputs":[{"name":"eliminated","type":"address","internalType":"address"},{"name":"didEliminate","type":"bool","internalType":"bool"}],"stateMutability":"nonpayable"},{"type":"function","name":"setActionValidator","inputs":[{"name":"validator","type":"address","internalType":"address"}],"outputs":[],"stateMutability":"nonpayable"},{"type":"function","name":"transferOwnership","inputs":[{"name":"newOwner","type":"address","internalType":"address"}],"outputs":[],"stateMutability":"nonpayable"},{"type":"function","name":"voteRegistry","inputs":[],"outputs":[{"name":"","type":"address","internalType":"contract VoteRegistry"}],"stateMutability":"view"},{"type":"event","name":"ActionValidatorSet","inputs":[{"name":"validator","type":"address","indexed":true,"internalType":"address"}],"anonymous":false},{"type":"event","name":"NoElimination","inputs":[{"name":"lobby","type":"address","indexed":true,"internalType":"address"},{"name":"round","type":"uint32","indexed":true,"internalType":"uint32"}],"anonymous":false},{"type":"event","name":"OwnershipTransferred","inputs":[{"name":"previousOwner","type":"address","indexed":true,"internalType":"address"},{"name":"newOwner","type":"address","indexed":true,"internalType":"address"}],"anonymous":false},{"type":"event","name":"PlayerEliminated","inputs":[{"name":"lobby","type":"address","indexed":true,"internalType":"address"},{"name":"round","type":"uint32","indexed":true,"internalType":"uint32"},{"name":"target","type":"address","indexed":true,"internalType":"address"},{"name":"votes","type":"uint256","indexed":false,"internalType":"uint256"}],"anonymous":false},{"type":"event","name":"VoteTie","inputs":[{"name":"lobby","type":"address","indexed":true,"internalType":"address"},{"name":"round","type":"uint32","indexed":true,"internalType":"uint32"},{"name":"tiedPlayers","type":"address[]","indexed":false,"internalType":"address[]"},{"name":"votes","type":"uint256","indexed":false,"internalType":"uint256"}],"anonymous":false},{"type":"error","name":"InvalidActionValidator","inputs":[]},{"type":"error","name":"InvalidPhase","inputs":[{"name":"expected","type":"uint8","internalType":"enum GameTypes.Phase"},{"name":"actual","type":"uint8","internalType":"enum GameTypes.Phase"}]},{"type":"error","name":"InvalidPhaseEngine","inputs":[]},{"type":"error","name":"InvalidPlayersResponse","inputs":[]},{"type":"error","name":"InvalidVoteRegistry","inputs":[]},{"type":"error","name":"NotOwner","inputs":[]},{"type":"error","name":"RoundNotInitialized","inputs":[]}],"bytecode":{"object":"0x60c060405234801561000f575f80fd5b50604051610e1e380380610e1e83398101604081905261002e916100f4565b60015f556001600160a01b0382166100595760405163429cc4ab60e01b815260040160405180910390fd5b6001600160a01b03811661008057604051637cd8784960e01b815260040160405180910390fd5b6001600160a01b03808316608052811660a052600280546001600160a01b031916339081179091556040515f907f8be0079c531659141344cd1fd0a4f28419497f9722a3daafe3b4186f6b6457e0908290a35050610125565b80516001600160a01b03811681146100ef575f80fd5b919050565b5f8060408385031215610105575f80fd5b61010e836100d9565b915061011c602084016100d9565b90509250929050565b60805160a051610ccb6101535f395f818161010c01526102f101525f818160e501526101d60152610ccb5ff3fe608060405234801561000f575f80fd5b506004361061007a575f3560e01c8063a839e6e011610058578063a839e6e014610107578063eae4a21c1461012e578063f2fde38b14610141578063f35d39c614610156575f80fd5b8063474accbd1461007e5780638da5cb5b146100b5578063909008a1146100e0575b5f80fd5b61009161008c3660046108b8565b610169565b604080516001600160a01b0390931683529015156020830152015b60405180910390f35b6002546100c8906001600160a01b031681565b6040516001600160a01b0390911681526020016100ac565b6100c87f000000000000000000000000000000000000000000000000000000000000000081565b6100c87f000000000000000000000000000000000000000000000000000000000000000081565b6001546100c8906001600160a01b031681565b61015461014f3660046108b8565b61066c565b005b6101546101643660046108b8565b610738565b5f8060025f54036101b25760405162461bcd60e51b815260206004820152600e60248201526d14915153951490539517d0d0531360921b60448201526064015b60405180910390fd5b60025f90815560405162acc9a960e21b81526001600160a01b0385811660048301527f000000000000000000000000000000000000000000000000000000000000000016906302b326a49060240160a060405180830381865afa15801561021b573d5f803e3d5ffd5b505050506040513d601f19601f8201168201806040525081019061023f919061095b565b9050806020015163ffffffff165f0361026e5760405160016236173b60e01b0319815260040160405180910390fd5b600381516004811115610283576102836109e7565b146102a657805160405163098d23bb60e41b81526101a991600391600401610a1b565b5f6102b0856107d3565b905080515f036102d35760405163ab3121c960e01b815260040160405180910390fd5b60208201516040516344c4b34560e01b81525f916001600160a01b037f000000000000000000000000000000000000000000000000000000000000000016916344c4b34591610329918a91908790600401610a79565b5f60405180830381865afa158015610343573d5f803e3d5ffd5b505050506040513d5f823e601f3d908101601f1916820160405261036a9190810190610ad4565b90505f8080805b84518110156103da575f85828151811061038d5761038d610b65565b60200260200101519050805f036103a457506103d2565b848111156103bb57809450819350600192506103d0565b8481036103d0576103cd600184610b8d565b92505b505b600101610371565b50825f0361043457856020015163ffffffff16896001600160a01b03167f700b62b2d7c72956d13c4492668907ae96cb787be94f19653a42ccea43d150b560405160405180910390a35f8097509750505050505050610661565b600181111561056b575f8167ffffffffffffffff811115610457576104576108da565b604051908082528060200260200182016040528015610480578160200160208202803683370190505b5090505f805b865181101561050957858782815181106104a2576104a2610b65565b602002602001015103610501578781815181106104c1576104c1610b65565b60200260200101518383815181106104db576104db610b65565b6001600160a01b0390921660209283029190910190910152816104fd81610ba6565b9250505b600101610486565b50876020015163ffffffff168b6001600160a01b03167ff6cba7b28220335690c4f580ac81ddb125c8d2e2240dff9df434ae2996c009df8488604051610550929190610bbe565b60405180910390a35f80995099505050505050505050610661565b5f85838151811061057e5761057e610b65565b60200260200101519050806001600160a01b0316876020015163ffffffff168b6001600160a01b03167f9dd06dab23126673177bf49afdac4c436760d18d4e109b0b0abeb34913e0c9ef876040516105d891815260200190565b60405180910390a46001546001600160a01b0316156106545760015460405163621d38a560e01b81526001600160a01b038c8116600483015283811660248301529091169063621d38a5906044015f604051808303815f87803b15801561063d575f80fd5b505af115801561064f573d5f803e3d5ffd5b505050505b9750600196505050505050505b60015f559092909150565b6002546001600160a01b03163314610697576040516330cd747160e01b815260040160405180910390fd5b6001600160a01b0381166106dd5760405162461bcd60e51b815260206004820152600d60248201526c24a72b20a624a22fa7aba722a960991b60448201526064016101a9565b6002546040516001600160a01b038084169216907f8be0079c531659141344cd1fd0a4f28419497f9722a3daafe3b4186f6b6457e0905f90a3600280546001600160a01b0319166001600160a01b0392909216919091179055565b6002546001600160a01b03163314610763576040516330cd747160e01b815260040160405180910390fd5b6001600160a01b03811661078a5760405163a7cb339b60e01b815260040160405180910390fd5b600180546001600160a01b0319166001600160a01b0383169081179091556040517fd1d9e1ba93072b534a62508d2e9294981f4391cec685c4600d04a92be92266ca905f90a250565b60408051600481526024810182526020810180516001600160e01b03166322d6e73360e21b17905290516060915f9182916001600160a01b038616916108199190610bdf565b5f60405180830381855afa9150503d805f8114610851576040519150601f19603f3d011682016040523d82523d5f602084013e610856565b606091505b509150915081158061086757508051155b156108855760405163ab3121c960e01b815260040160405180910390fd5b808060200190518101906108999190610c0b565b949350505050565b6001600160a01b03811681146108b5575f80fd5b50565b5f602082840312156108c8575f80fd5b81356108d3816108a1565b9392505050565b634e487b7160e01b5f52604160045260245ffd5b60405160a0810167ffffffffffffffff81118282101715610911576109116108da565b60405290565b604051601f8201601f1916810167ffffffffffffffff81118282101715610940576109406108da565b604052919050565b805160058110610956575f80fd5b919050565b5f60a0828403121561096b575f80fd5b6109736108ee565b61097c83610948565b8152602083015163ffffffff81168114610994575f80fd5b6020820152604083015167ffffffffffffffff811681146109b3575f80fd5b60408201526109c460608401610948565b6060820152608083015180151581146109db575f80fd5b60808201529392505050565b634e487b7160e01b5f52602160045260245ffd5b60058110610a1757634e487b7160e01b5f52602160045260245ffd5b9052565b60408101610a2982856109fb565b6108d360208301846109fb565b5f815180845260208085019450602084015f5b83811015610a6e5781516001600160a01b031687529582019590820190600101610a49565b509495945050505050565b6001600160a01b038416815263ffffffff831660208201526060604082018190525f90610aa890830184610a36565b95945050505050565b5f67ffffffffffffffff821115610aca57610aca6108da565b5060051b60200190565b5f6020808385031215610ae5575f80fd5b825167ffffffffffffffff811115610afb575f80fd5b8301601f81018513610b0b575f80fd5b8051610b1e610b1982610ab1565b610917565b81815260059190911b82018301908381019087831115610b3c575f80fd5b928401925b82841015610b5a57835182529284019290840190610b41565b979650505050505050565b634e487b7160e01b5f52603260045260245ffd5b634e487b7160e01b5f52601160045260245ffd5b80820180821115610ba057610ba0610b79565b92915050565b5f60018201610bb757610bb7610b79565b5060010190565b604081525f610bd06040830185610a36565b90508260208301529392505050565b5f82515f5b81811015610bfe5760208186018101518583015201610be4565b505f920191825250919050565b5f6020808385031215610c1c575f80fd5b825167ffffffffffffffff811115610c32575f80fd5b8301601f81018513610c42575f80fd5b8051610c50610b1982610ab1565b81815260059190911b82018301908381019087831115610c6e575f80fd5b928401925b82841015610b5a578351610c86816108a1565b82529284019290840190610c7356fea26469706673582212202c2464908b1df0f1e48db277ad252fd91a9b65eb72da02beb533a3c5b8cef8d064736f6c63430008170033","linkReferences":{}},"methodIdentifiers":{"actionValidator()":"eae4a21c","owner()":"8da5cb5b","phaseEngine()":"909008a1","resolveDay(address)":"474accbd","setActionValidator(address)":"f35d39c6","transferOwnership(address)":"f2fde38b","voteRegistry()":"a839e6e0"},"id":3}