{"abi":[{"type":"constructor","inputs":[{"name":"executor_","type":"address","internalType":"address"}],"stateMutability":"nonpayable"},{"type":"function","name":"executeNightAction","inputs":[{"name":"lobby","type":"address","internalType":"address"},{"name":"actor","type":"address","internalType":"address"},{"name":"target","type":"address","internalType":"address"},{"name":"","type":"bytes","internalType":"bytes"}],"outputs":[{"name":"effect","type":"tuple","internalType":"struct GameTypes.AbilityEffect","components":[{"name":"effectType","type":"uint8","internalType":"enum GameTypes.AbilityEffectType"},{"name":"target","type":"address","internalType":"address"},{"name":"data","type":"bytes","internalType":"bytes"}]}],"stateMutability":"nonpayable"},{"type":"function","name":"executor","inputs":[],"outputs":[{"name":"","type":"address","internalType":"address"}],"stateMutability":"view"},{"type":"function","name":"getAlignment","inputs":[{"name":"player","type":"address","internalType":"address"}],"outputs":[{"name":"","type":"tuple","internalType":"struct InvestigateAbility.AlignmentRecord","components":[{"name":"isSet","type":"bool","internalType":"bool"},{"name":"isMafia","type":"bool","internalType":"bool"}]}],"stateMutability":"view"},{"type":"function","name":"owner","inputs":[],"outputs":[{"name":"","type":"address","internalType":"address"}],"stateMutability":"view"},{"type":"function","name":"setAlignment","inputs":[{"name":"player","type":"address","internalType":"address"},{"name":"isMafia","type":"bool","internalType":"bool"}],"outputs":[],"stateMutability":"nonpayable"},{"type":"function","name":"setAlignments","inputs":[{"name":"players","type":"address[]","internalType":"address[]"},{"name":"flags","type":"bool[]","internalType":"bool[]"}],"outputs":[],"stateMutability":"nonpayable"},{"type":"function","name":"transferOwnership","inputs":[{"name":"newOwner","type":"address","internalType":"address"}],"outputs":[],"stateMutability":"nonpayable"},{"type":"event","name":"AlignmentUpdated","inputs":[{"name":"player","type":"address","indexed":true,"internalType":"address"},{"name":"isMafia","type":"bool","indexed":false,"internalType":"bool"}],"anonymous":false},{"type":"event","name":"InvestigationQueued","inputs":[{"name":"lobby","type":"address","indexed":true,"internalType":"address"},{"name":"actor","type":"address","indexed":true,"internalType":"address"},{"name":"target","type":"address","indexed":true,"internalType":"address"},{"name":"isMafia","type":"bool","indexed":false,"internalType":"bool"}],"anonymous":false},{"type":"event","name":"OwnershipTransferred","inputs":[{"name":"previousOwner","type":"address","indexed":true,"internalType":"address"},{"name":"newOwner","type":"address","indexed":true,"internalType":"address"}],"anonymous":false},{"type":"error","name":"AlignmentNotConfigured","inputs":[]},{"type":"error","name":"InvalidArrayLength","inputs":[]},{"type":"error","name":"InvalidExecutor","inputs":[]},{"type":"error","name":"InvalidOwner","inputs":[]},{"type":"error","name":"InvalidTarget","inputs":[]},{"type":"error","name":"NotExecutor","inputs":[]},{"type":"error","name":"NotOwner","inputs":[]}],"bytecode":{"object":"0x60a060405234801561000f575f80fd5b5060405161093c38038061093c83398101604081905261002e916100a6565b6001600160a01b0381166100555760405163710c949760e01b815260040160405180910390fd5b6001600160a01b0381166080525f80546001600160a01b0319163390811782556040519091907f8be0079c531659141344cd1fd0a4f28419497f9722a3daafe3b4186f6b6457e0908290a3506100d3565b5f602082840312156100b6575f80fd5b81516001600160a01b03811681146100cc575f80fd5b9392505050565b60805161084b6100f15f395f818160eb01526102ae015261084b5ff3fe608060405234801561000f575f80fd5b506004361061007a575f3560e01c8063c34c08e511610058578063c34c08e5146100e6578063cb7a7ecf1461010d578063d93d16bc14610120578063f2fde38b1461019d575f80fd5b8063466296d71461007e5780637a082177146100935780638da5cb5b146100bc575b5f80fd5b61009161008c3660046105bf565b6101b0565b005b6100a66100a13660046105f0565b610288565b6040516100b3919061068a565b60405180910390f35b5f546100ce906001600160a01b031681565b6040516001600160a01b0390911681526020016100b3565b6100ce7f000000000000000000000000000000000000000000000000000000000000000081565b61009161011b366004610761565b610437565b61017e61012e3660046107c8565b604080518082019091525f8082526020820152506001600160a01b03165f9081526001602090815260409182902082518084019093525460ff808216151584526101009091041615159082015290565b60408051825115158152602092830151151592810192909252016100b3565b6100916101ab3660046107c8565b6104eb565b5f546001600160a01b031633146101da576040516330cd747160e01b815260040160405180910390fd5b6001600160a01b0382166102015760405163416aebb560e11b815260040160405180910390fd5b604080518082018252600180825283151560208084018281526001600160a01b0388165f8181529483529386902094518554915161ffff1990921690151561ff0019161761010091151591909102179093559251928352917fd635d0a7e20628371b13d0b2408bd8127831228ff397adf216729616e5d9a223910160405180910390a25050565b60408051606080820183525f808352602083015291810191909152336001600160a01b037f000000000000000000000000000000000000000000000000000000000000000016146102ec576040516361968ebb60e11b815260040160405180910390fd5b6001600160a01b0384166103135760405163416aebb560e11b815260040160405180910390fd5b6001600160a01b0384165f9081526001602090815260409182902082518084019093525460ff80821615158085526101009092041615159183019190915261036e57604051636d614fc760e11b815260040160405180910390fd5b846001600160a01b0316866001600160a01b0316886001600160a01b03167f2e9b5a42cf36908e7453b1d6127ca27a0cd0a0628f0c3c38f81aed9c57f6e51f84602001516040516103c3911515815260200190565b60405180910390a460408051606081019091528060038152602001876001600160a01b0316815260200186836020015160405160200161041a9291906001600160a01b039290921682521515602082015260400190565b60408051601f198184030181529190529052979650505050505050565b5f546001600160a01b03163314610461576040516330cd747160e01b815260040160405180910390fd5b82811461048157604051634ec4810560e11b815260040160405180910390fd5b5f5b838110156104e4576104dc8585838181106104a0576104a06107e8565b90506020020160208101906104b591906107c8565b8484848181106104c7576104c76107e8565b905060200201602081019061008c91906107fc565b600101610483565b5050505050565b5f546001600160a01b03163314610515576040516330cd747160e01b815260040160405180910390fd5b6001600160a01b03811661053c576040516349e27cff60e01b815260040160405180910390fd5b5f80546040516001600160a01b03808516939216917f8be0079c531659141344cd1fd0a4f28419497f9722a3daafe3b4186f6b6457e091a35f80546001600160a01b0319166001600160a01b0392909216919091179055565b80356001600160a01b03811681146105ab575f80fd5b919050565b803580151581146105ab575f80fd5b5f80604083850312156105d0575f80fd5b6105d983610595565b91506105e7602084016105b0565b90509250929050565b5f805f805f60808688031215610604575f80fd5b61060d86610595565b945061061b60208701610595565b935061062960408701610595565b9250606086013567ffffffffffffffff80821115610645575f80fd5b818801915088601f830112610658575f80fd5b813581811115610666575f80fd5b896020828501011115610677575f80fd5b9699959850939650602001949392505050565b5f60208083528351600581106106ae57634e487b7160e01b5f52602160045260245ffd5b8060208501525060018060a01b036020850151166040840152604084015160608085015280518060808601525f5b818110156106f85782810184015186820160a0015283016106dc565b505f60a0828701015260a0601f19601f830116860101935050505092915050565b5f8083601f840112610729575f80fd5b50813567ffffffffffffffff811115610740575f80fd5b6020830191508360208260051b850101111561075a575f80fd5b9250929050565b5f805f8060408587031215610774575f80fd5b843567ffffffffffffffff8082111561078b575f80fd5b61079788838901610719565b909650945060208701359150808211156107af575f80fd5b506107bc87828801610719565b95989497509550505050565b5f602082840312156107d8575f80fd5b6107e182610595565b9392505050565b634e487b7160e01b5f52603260045260245ffd5b5f6020828403121561080c575f80fd5b6107e1826105b056fea2646970667358221220726a5708633248d514f9ea7577dc728f3b09de97428a9023e4122a31600d80e264736f6c63430008170033","linkReferences":{}},"methodIdentifiers":{"executeNightAction(address,address,address,bytes)":"7a082177","executor()":"c34c08e5","getAlignment(address)":"d93d16bc","owner()":"8da5cb5b","setAlignment(address,bool)":"466296d7","setAlignments(address[],bool[])":"cb7a7ecf","transferOwnership(address)":"f2fde38b"},"id":13}