{"abi":[{"type":"constructor","inputs":[],"stateMutability":"nonpayable"},{"type":"function","name":"createLobby","inputs":[{"name":"config","type":"tuple","internalType":"struct GameTypes.LobbyConfig","components":[{"name":"minPlayers","type":"uint8","internalType":"uint8"},{"name":"maxPlayers","type":"uint8","internalType":"uint8"},{"name":"isPrivate","type":"bool","internalType":"bool"},{"name":"joinTimeoutSeconds","type":"uint32","internalType":"uint32"}]},{"name":"joinCodeHash","type":"bytes32","internalType":"bytes32"},{"name":"metadataURI","type":"string","internalType":"string"}],"outputs":[{"name":"lobbyId","type":"uint256","internalType":"uint256"},{"name":"lobbyAddress","type":"address","internalType":"address"}],"stateMutability":"nonpayable"},{"type":"function","name":"getLobbyCount","inputs":[],"outputs":[{"name":"","type":"uint256","internalType":"uint256"}],"stateMutability":"view"},{"type":"function","name":"getLobbyRecord","inputs":[{"name":"lobbyId","type":"uint256","internalType":"uint256"}],"outputs":[{"name":"","type":"tuple","internalType":"struct GameTypes.LobbyRecord","components":[{"name":"lobbyAddress","type":"address","internalType":"address"},{"name":"creator","type":"address","internalType":"address"},{"name":"config","type":"tuple","internalType":"struct GameTypes.LobbyConfig","components":[{"name":"minPlayers","type":"uint8","internalType":"uint8"},{"name":"maxPlayers","type":"uint8","internalType":"uint8"},{"name":"isPrivate","type":"bool","internalType":"bool"},{"name":"joinTimeoutSeconds","type":"uint32","internalType":"uint32"}]},{"name":"metadataURI","type":"string","internalType":"string"},{"name":"createdAt","type":"uint256","internalType":"uint256"}]}],"stateMutability":"view"},{"type":"function","name":"isLobbyLocked","inputs":[{"name":"lobbyId","type":"uint256","internalType":"uint256"}],"outputs":[{"name":"","type":"bool","internalType":"bool"}],"stateMutability":"view"},{"type":"function","name":"owner","inputs":[],"outputs":[{"name":"","type":"address","internalType":"address"}],"stateMutability":"view"},{"type":"function","name":"phaseEngine","inputs":[],"outputs":[{"name":"","type":"address","internalType":"contract PhaseEngine"}],"stateMutability":"view"},{"type":"function","name":"setPhaseEngine","inputs":[{"name":"phaseEngineAddress","type":"address","internalType":"address"}],"outputs":[],"stateMutability":"nonpayable"},{"type":"function","name":"transferOwnership","inputs":[{"name":"newOwner","type":"address","internalType":"address"}],"outputs":[],"stateMutability":"nonpayable"},{"type":"event","name":"LobbyCreated","inputs":[{"name":"lobbyId","type":"uint256","indexed":true,"internalType":"uint256"},{"name":"lobbyAddress","type":"address","indexed":true,"internalType":"address"},{"name":"creator","type":"address","indexed":true,"internalType":"address"}],"anonymous":false},{"type":"event","name":"OwnershipTransferred","inputs":[{"name":"previousOwner","type":"address","indexed":true,"internalType":"address"},{"name":"newOwner","type":"address","indexed":true,"internalType":"address"}],"anonymous":false},{"type":"event","name":"PhaseEngineUpdated","inputs":[{"name":"newPhaseEngine","type":"address","indexed":true,"internalType":"address"}],"anonymous":false},{"type":"error","name":"InvalidConfig","inputs":[]},{"type":"error","name":"InvalidPhaseEngine","inputs":[]},{"type":"error","name":"LobbyNotFound","inputs":[{"name":"lobbyId","type":"uint256","internalType":"uint256"}]},{"type":"error","name":"NotOwner","inputs":[]}],"bytecode":{"object":"0x608060405234801561000f575f80fd5b5060015f908155600380546001600160a01b031916339081179091556040519091907f8be0079c531659141344cd1fd0a4f28419497f9722a3daafe3b4186f6b6457e0908290a3611ebe806100635f395ff3fe608060405234801562000010575f80fd5b506004361062000090575f3560e01c80638da5cb5b116200005f5780638da5cb5b146200012d578063909008a1146200015a578063a3990d17146200016e578063f2fde38b1462000187575f80fd5b80632f61f38014620000945780635c4d3b9b14620000c0578063609ebe7f14620000e65780636785a666146200011b575b5f80fd5b620000ab620000a5366004620009df565b6200019e565b60405190151581526020015b60405180910390f35b620000d7620000d1366004620009df565b62000217565b604051620000b7919062000a3c565b620000fd620000f736600462000ac9565b62000399565b604080519283526001600160a01b03909116602083015201620000b7565b600154604051908152602001620000b7565b60035462000141906001600160a01b031681565b6040516001600160a01b039091168152602001620000b7565b60025462000141906001600160a01b031681565b620001856200017f36600462000b56565b620006cf565b005b620001856200019836600462000b56565b6200076c565b5f80620001ab836200083b565b9050806001600160a01b031663cf3090126040518163ffffffff1660e01b8152600401602060405180830381865afa158015620001ea573d5f803e3d5ffd5b505050506040513d601f19601f8201168201806040525081019062000210919062000b8c565b9392505050565b620002686040805160a0810182525f80825260208083018290528351608081018552828152908101829052808401829052606081019190915290918201908152602001606081526020015f81525090565b5f620002748362000899565b6040805160a08101825282546001600160a01b0390811682526001840154166020808301919091528251608081018452600285015460ff80821683526101008204811693830193909352620100008104909216151581850152630100000090910463ffffffff1660608083019190915292820152600383018054939450909291830191620003029062000baa565b80601f0160208091040260200160405190810160405280929190818152602001828054620003309062000baa565b80156200037f5780601f1062000355576101008083540402835291602001916200037f565b820191905f5260205f20905b8154815290600101906020018083116200036157829003601f168201915b505050505081526020018260040154815250915050919050565b5f8060025f5403620003e35760405162461bcd60e51b815260206004820152600e60248201526d14915153951490539517d0d0531360921b60448201526064015b60405180910390fd5b60025f55620003f286620008eb565b5f33878686896040516200040690620009d1565b6200041695949392919062000c0e565b604051809103905ff08015801562000430573d5f803e3d5ffd5b506040805160a0810182526001600160a01b03831681523360208201529192505f9190810162000466368b90038b018b62000cc4565b815260200187878080601f0160208091040260200160405190810160405280939291908181526020018383808284375f920182905250938552505042602093840152506001805480820182559152825160059091027fb10e2d527612073b26eecdfd717e6a320cf44b4afac2b0732d9fcbe2b7fa0cf6810180546001600160a01b039384166001600160a01b0319918216178255858501517fb10e2d527612073b26eecdfd717e6a320cf44b4afac2b0732d9fcbe2b7fa0cf7840180549190951691161790925560408085015180517fb10e2d527612073b26eecdfd717e6a320cf44b4afac2b0732d9fcbe2b7fa0cf884018054968301519383015160609384015163ffffffff1663010000000266ffffffff0000001991151562010000029190911666ffffffffff00001960ff9687166101000261ffff19909a16969094169590951797909717919091169290921794909417905591830151929350839290917fb10e2d527612073b26eecdfd717e6a320cf44b4afac2b0732d9fcbe2b7fa0cf90190620005f6908262000d9d565b50608091909101516004909101556001805462000614919062000e6a565b6002549094506001600160a01b031615620006865760025460405163b649491f60e01b81526001600160a01b0384811660048301529091169063b649491f906024015f604051808303815f87803b1580156200066e575f80fd5b505af115801562000681573d5f803e3d5ffd5b505050505b60405133906001600160a01b0384169086907f6cedf398f30da6888ff087007a6ef727e2f4e068404648e1e905c81c827b27f7905f90a450905060015f55909590945092505050565b6003546001600160a01b03163314620006fb576040516330cd747160e01b815260040160405180910390fd5b6001600160a01b038116620007235760405163429cc4ab60e01b815260040160405180910390fd5b600280546001600160a01b0319166001600160a01b0383169081179091556040517f4f88826d7de4929413eb51468dfb8db72e51fc69d5387b2fc63de1bd5c7c318e905f90a250565b6003546001600160a01b0316331462000798576040516330cd747160e01b815260040160405180910390fd5b6001600160a01b038116620007e05760405162461bcd60e51b815260206004820152600d60248201526c24a72b20a624a22fa7aba722a960991b6044820152606401620003da565b6003546040516001600160a01b038084169216907f8be0079c531659141344cd1fd0a4f28419497f9722a3daafe3b4186f6b6457e0905f90a3600380546001600160a01b0319166001600160a01b0392909216919091179055565b6001545f9082106200086457604051636301dce560e11b815260048101839052602401620003da565b600182815481106200087a576200087a62000e90565b5f9182526020909120600590910201546001600160a01b031692915050565b6001545f908210620008c257604051636301dce560e11b815260048101839052602401620003da565b60018281548110620008d857620008d862000e90565b905f5260205f2090600502019050919050565b6002620008fc602083018362000ea4565b60ff16108062000920575060646200091b604083016020840162000ea4565b60ff16115b8062000950575062000936602082018262000ea4565b60ff166200094b604083016020840162000ea4565b60ff16105b156200096f576040516306b7c75960e31b815260040160405180910390fd5b5f62000982608083016060840162000ec0565b63ffffffff161115620009ce576202a30080620009a6608084016060850162000ec0565b63ffffffff161115620009cc576040516306b7c75960e31b815260040160405180910390fd5b505b50565b610fac8062000edd83390190565b5f60208284031215620009f0575f80fd5b5035919050565b5f81518084525f5b8181101562000a1d57602081850181015186830182015201620009ff565b505f602082860101526020601f19601f83011685010191505092915050565b602081525f60018060a01b0380845116602084015280602085015116604084015250604083015160ff815116606084015260ff60208201511660808401526040810151151560a084015263ffffffff60608201511660c08401525060608301516101008060e085015262000ab5610120850183620009f7565b608095909501519301929092525090919050565b5f805f8084860360c081121562000ade575f80fd5b608081121562000aec575f80fd5b508493506080850135925060a085013567ffffffffffffffff8082111562000b12575f80fd5b818701915087601f83011262000b26575f80fd5b81358181111562000b35575f80fd5b88602082850101111562000b47575f80fd5b95989497505060200194505050565b5f6020828403121562000b67575f80fd5b81356001600160a01b038116811462000210575f80fd5b8015158114620009ce575f80fd5b5f6020828403121562000b9d575f80fd5b8151620002108162000b7e565b600181811c9082168062000bbf57607f821691505b60208210810362000bde57634e487b7160e01b5f52602260045260245ffd5b50919050565b803560ff8116811462000bf5575f80fd5b919050565b803563ffffffff8116811462000bf5575f80fd5b6001600160a01b038616815260ff62000c278662000be4565b16602082015260ff62000c3d6020870162000be4565b1660408201525f604086013562000c548162000b7e565b80151560608401525063ffffffff62000c706060880162000bfa565b16608083015260e060a08301528360e08301526101008486828501375f83860182015260c083019390935250601f909201601f1916909101019392505050565b634e487b7160e01b5f52604160045260245ffd5b5f6080828403121562000cd5575f80fd5b6040516080810181811067ffffffffffffffff8211171562000cfb5762000cfb62000cb0565b60405262000d098362000be4565b815262000d196020840162000be4565b6020820152604083013562000d2e8162000b7e565b604082015262000d416060840162000bfa565b60608201529392505050565b601f82111562000d9857805f5260205f20601f840160051c8101602085101562000d745750805b601f840160051c820191505b8181101562000d95575f815560010162000d80565b50505b505050565b815167ffffffffffffffff81111562000dba5762000dba62000cb0565b62000dd28162000dcb845462000baa565b8462000d4d565b602080601f83116001811462000e08575f841562000df05750858301515b5f19600386901b1c1916600185901b17855562000e62565b5f85815260208120601f198616915b8281101562000e385788860151825594840194600190910190840162000e17565b508582101562000e5657878501515f19600388901b60f8161c191681555b505060018460011b0185555b505050505050565b8181038181111562000e8a57634e487b7160e01b5f52601160045260245ffd5b92915050565b634e487b7160e01b5f52603260045260245ffd5b5f6020828403121562000eb5575f80fd5b620002108262000be4565b5f6020828403121562000ed1575f80fd5b620002108262000bfa56fe61010060405234801562000011575f80fd5b5060405162000fac38038062000fac8339810160408190526200003491620003e5565b825f015160ff16836020015160ff161015620000975760405162461bcd60e51b815260206004820152601560248201527f494e56414c49445f504c415945525f434f554e5453000000000000000000000060448201526064015b60405180910390fd5b6002835f015160ff161015620000f05760405162461bcd60e51b815260206004820152601360248201527f4d494e5f504c41594552535f544f4f5f4c4f570000000000000000000000000060448201526064016200008e565b6064836020015160ff1611156200014a5760405162461bcd60e51b815260206004820152601460248201527f4d41585f504c41594552535f544f4f5f4849474800000000000000000000000060448201526064016200008e565b336080526001600160a01b03841660a05282515f805460208601516040870151606088015163ffffffff1663010000000266ffffffff0000001991151562010000029190911666ffffffffff00001960ff9384166101000261ffff1990951693909616929092179290921793909316929092179190911790556001620001d183826200054c565b5060c08190524260e052620001e684620001f0565b505050506200063e565b6001600160a01b0381165f9081526004602052604090205460ff16156200022a5760405163e6f2639b60e01b815260040160405180910390fd5b6001600160a01b0381165f818152600460205260408120805460ff19166001908117909155600380548083018255928190527fc2575a0e9e593c00f959f8c92f12db2869c3395a3b0502d05e2516446f71f85b90920180546001600160a01b031916909317909255546200029f919062000618565b6040516001600160a01b038316907f3330a6773675f31f62070870f40379f8c6d42e3761410011a4dfc42b18043d2f905f90a350565b634e487b7160e01b5f52604160045260245ffd5b604051608081016001600160401b03811182821017156200030e576200030e620002d5565b60405290565b604051601f8201601f191681016001600160401b03811182821017156200033f576200033f620002d5565b604052919050565b805160ff8116811462000358575f80fd5b919050565b5f82601f8301126200036d575f80fd5b81516001600160401b03811115620003895762000389620002d5565b60206200039f601f8301601f1916820162000314565b8281528582848701011115620003b3575f80fd5b5f5b83811015620003d2578581018301518282018401528201620003b5565b505f928101909101919091529392505050565b5f805f8084860360e0811215620003fa575f80fd5b85516001600160a01b038116811462000411575f80fd5b94506080601f198201121562000425575f80fd5b5062000430620002e9565b6200043e6020870162000347565b81526200044e6040870162000347565b60208201526060860151801515811462000466575f80fd5b6040820152608086015163ffffffff8116811462000482575f80fd5b606082015260a08601519093506001600160401b03811115620004a3575f80fd5b620004b1878288016200035d565b60c096909601519497939650505050565b600181811c90821680620004d757607f821691505b602082108103620004f657634e487b7160e01b5f52602260045260245ffd5b50919050565b601f8211156200054757805f5260205f20601f840160051c81016020851015620005235750805b601f840160051c820191505b8181101562000544575f81556001016200052f565b50505b505050565b81516001600160401b03811115620005685762000568620002d5565b6200058081620005798454620004c2565b84620004fc565b602080601f831160018114620005b6575f84156200059e5750858301515b5f19600386901b1c1916600185901b17855562000610565b5f85815260208120601f198616915b82811015620005e657888601518255948401946001909101908401620005c5565b50858210156200060457878501515f19600388901b60f8161c191681555b505060018460011b0185555b505050505050565b818103818111156200063857634e487b7160e01b5f52601160045260245ffd5b92915050565b60805160a05160c05160e051610918620006945f395f8181610291015261039901525f81816101a40152818161041b015261044f01525f818160ba015261055401525f8181610142015261052001526109185ff3fe608060405234801561000f575f80fd5b50600436106100b1575f3560e01c8063877f4e121161006e578063877f4e121461016457806389f3b3821461019f5780638b5b9ccc146101c6578063c3f909d4146101db578063cf09e0d01461028c578063cf309012146102b3575f80fd5b806302d05d3f146100b557806303ee438c146100f9578063302bcc571461010e5780636a786b07146101205780636d4908c4146101355780637b1039991461013d575b5f80fd5b6100dc7f000000000000000000000000000000000000000000000000000000000000000081565b6040516001600160a01b0390911681526020015b60405180910390f35b6101016102c0565b6040516100f0919061072a565b6003545b6040519081526020016100f0565b61013361012e366004610776565b61034c565b005b610133610515565b6100dc7f000000000000000000000000000000000000000000000000000000000000000081565b61018f6101723660046107e2565b6001600160a01b03165f9081526004602052604090205460ff1690565b60405190151581526020016100f0565b6101127f000000000000000000000000000000000000000000000000000000000000000081565b6101ce6105e8565b6040516100f0919061080f565b610247604080516080810182525f80825260208201819052918101829052606081019190915250604080516080810182525f5460ff808216835261010082048116602084015262010000820416151592820192909252630100000090910463ffffffff16606082015290565b6040516100f091905f60808201905060ff835116825260ff602084015116602083015260408301511515604083015263ffffffff606084015116606083015292915050565b6101127f000000000000000000000000000000000000000000000000000000000000000081565b60025461018f9060ff1681565b600180546102cd9061085b565b80601f01602080910402602001604051908101604052809291908181526020018280546102f99061085b565b80156103445780601f1061031b57610100808354040283529160200191610344565b820191905f5260205f20905b81548152906001019060200180831161032757829003601f168201915b505050505081565b60025460ff161561037057604051632dcf680760e11b815260040160405180910390fd5b5f546301000000900463ffffffff16156103dd575f546103bd906301000000900463ffffffff167f00000000000000000000000000000000000000000000000000000000000000006108a7565b4211156103dd5760405163d617155760e01b815260040160405180910390fd5b5f5462010000900460ff1615610481575f82826040516020016104019291906108c0565b6040516020818303038152906040528051906020012090507f0000000000000000000000000000000000000000000000000000000000000000811461047f57604051634ba18b8560e11b81527f0000000000000000000000000000000000000000000000000000000000000000600482015260240160405180910390fd5b505b5f5460035461010090910460ff16116104ad5760405163be02dee760e01b815260040160405180910390fd5b6104b633610648565b5f5460035461010090910460ff1611610511576002805460ff191660011790556040517f02049ec112f3c3743e091ea6b44b77edeb0febd6fb3bc9fe134e169e36c52a1c906105089042815260200190565b60405180910390a15b5050565b336001600160a01b037f000000000000000000000000000000000000000000000000000000000000000016148015906105775750336001600160a01b037f00000000000000000000000000000000000000000000000000000000000000001614155b15610594576040516282b42960e81b815260040160405180910390fd5b60025460ff166105e6576002805460ff191660011790556040517f02049ec112f3c3743e091ea6b44b77edeb0febd6fb3bc9fe134e169e36c52a1c906105dd9042815260200190565b60405180910390a15b565b6060600380548060200260200160405190810160405280929190818152602001828054801561063e57602002820191905f5260205f20905b81546001600160a01b03168152600190910190602001808311610620575b5050505050905090565b6001600160a01b0381165f9081526004602052604090205460ff16156106815760405163e6f2639b60e01b815260040160405180910390fd5b6001600160a01b0381165f818152600460205260408120805460ff19166001908117909155600380548083018255928190527fc2575a0e9e593c00f959f8c92f12db2869c3395a3b0502d05e2516446f71f85b90920180546001600160a01b031916909317909255546106f491906108cf565b6040516001600160a01b038316907f3330a6773675f31f62070870f40379f8c6d42e3761410011a4dfc42b18043d2f905f90a350565b5f602080835283518060208501525f5b818110156107565785810183015185820160400152820161073a565b505f604082860101526040601f19601f8301168501019250505092915050565b5f8060208385031215610787575f80fd5b823567ffffffffffffffff8082111561079e575f80fd5b818501915085601f8301126107b1575f80fd5b8135818111156107bf575f80fd5b8660208285010111156107d0575f80fd5b60209290920196919550909350505050565b5f602082840312156107f2575f80fd5b81356001600160a01b0381168114610808575f80fd5b9392505050565b602080825282518282018190525f9190848201906040850190845b8181101561084f5783516001600160a01b03168352928401929184019160010161082a565b50909695505050505050565b600181811c9082168061086f57607f821691505b60208210810361088d57634e487b7160e01b5f52602260045260245ffd5b50919050565b634e487b7160e01b5f52601160045260245ffd5b808201808211156108ba576108ba610893565b92915050565b818382375f9101908152919050565b818103818111156108ba576108ba61089356fea26469706673582212205e0e186038ac2e5d12f05e75a58d71f2d739ea2f87da8b8881e0974ea7d9f4f464736f6c63430008170033a2646970667358221220f495e14d2a9b40a92f2dece65ab3e54a40b1c656adce4e1bd9189ed35bf63d9064736f6c63430008170033","linkReferences":{}},"methodIdentifiers":{"createLobby((uint8,uint8,bool,uint32),bytes32,string)":"609ebe7f","getLobbyCount()":"6785a666","getLobbyRecord(uint256)":"5c4d3b9b","isLobbyLocked(uint256)":"2f61f380","owner()":"8da5cb5b","phaseEngine()":"909008a1","setPhaseEngine(address)":"a3990d17","transferOwnership(address)":"f2fde38b"},"id":7}