{"abi":[{"type":"function","name":"assignRoles","inputs":[{"name":"playerAddresses","type":"address[]","internalType":"address[]"},{"name":"isBots","type":"bool[]","internalType":"bool[]"}],"outputs":[],"stateMutability":"nonpayable"},{"type":"function","name":"commitVote","inputs":[{"name":"commitment","type":"bytes32","internalType":"bytes32"}],"outputs":[],"stateMutability":"nonpayable"},{"type":"function","name":"nightActions","inputs":[{"name":"","type":"uint256","internalType":"uint256"}],"outputs":[{"name":"actor","type":"address","internalType":"address"},{"name":"target","type":"address","internalType":"address"},{"name":"data","type":"bytes","internalType":"bytes"},{"name":"consumed","type":"bool","internalType":"bool"}],"stateMutability":"view"},{"type":"function","name":"phaseState","inputs":[],"outputs":[{"name":"currentPhase","type":"uint8","internalType":"enum GameTypes.Phase"},{"name":"round","type":"uint32","internalType":"uint32"},{"name":"deadline","type":"uint64","internalType":"uint64"},{"name":"scheduledPhase","type":"uint8","internalType":"enum GameTypes.Phase"},{"name":"autoAdvanceEnabled","type":"bool","internalType":"bool"}],"stateMutability":"view"},{"type":"function","name":"players","inputs":[{"name":"","type":"uint256","internalType":"uint256"}],"outputs":[{"name":"player","type":"address","internalType":"address"},{"name":"role","type":"uint8","internalType":"enum GameTypes.Role"},{"name":"isAlive","type":"bool","internalType":"bool"},{"name":"isBot","type":"bool","internalType":"bool"}],"stateMutability":"view"},{"type":"function","name":"queueNightAction","inputs":[{"name":"target","type":"address","internalType":"address"},{"name":"data","type":"bytes","internalType":"bytes"}],"outputs":[],"stateMutability":"nonpayable"},{"type":"function","name":"votes","inputs":[{"name":"","type":"address","internalType":"address"}],"outputs":[{"name":"commitment","type":"bytes32","internalType":"bytes32"},{"name":"revealed","type":"bool","internalType":"bool"},{"name":"target","type":"address","internalType":"address"}],"stateMutability":"view"},{"type":"event","name":"NightActionQueued","inputs":[{"name":"actor","type":"address","indexed":false,"internalType":"address"},{"name":"target","type":"address","indexed":false,"internalType":"address"}],"anonymous":false},{"type":"event","name":"RoleAssigned","inputs":[{"name":"player","type":"address","indexed":false,"internalType":"address"},{"name":"role","type":"uint8","indexed":false,"internalType":"enum GameTypes.Role"}],"anonymous":false},{"type":"event","name":"VoteCommitted","inputs":[{"name":"voter","type":"address","indexed":false,"internalType":"address"},{"name":"commitment","type":"bytes32","indexed":false,"internalType":"bytes32"}],"anonymous":false}],"bytecode":{"object":"0x608060405234801561000f575f80fd5b50610d708061001d5f395ff3fe608060405234801561000f575f80fd5b506004361061007a575f3560e01c8063bbb82fcf11610058578063bbb82fcf146100d2578063d8bff5a5146100e5578063eb2a19ed14610142578063f71d96cb14610195575f80fd5b80632a8a1dbe1461007e5780633a582497146100aa5780633e858923146100bf575b5f80fd5b61009161008c3660046107f3565b6101b8565b6040516100a1949392919061080a565b60405180910390f35b6100bd6100b83660046108db565b610289565b005b6100bd6100cd3660046107f3565b6103c8565b6100bd6100e0366004610a17565b61046c565b61011e6100f3366004610ad1565b60026020525f90815260409020805460019091015460ff81169061010090046001600160a01b031683565b6040805193845291151560208401526001600160a01b0316908201526060016100a1565b5f546101849060ff8082169163ffffffff6101008204169167ffffffffffffffff6501000000000083041691600160681b8104821691600160701b9091041685565b6040516100a1959493929190610b19565b6101a86101a33660046107f3565b6107ab565b6040516100a19493929190610b72565b600381815481106101c7575f80fd5b5f9182526020909120600490910201805460018201546002830180546001600160a01b0393841695509290911692916101ff90610ba6565b80601f016020809104026020016040519081016040528092919081815260200182805461022b90610ba6565b80156102765780601f1061024d57610100808354040283529160200191610276565b820191905f5260205f20905b81548152906001019060200180831161025957829003601f168201915b5050506003909301549192505060ff1684565b604080516080810182523381526001600160a01b03848116602083019081529282018481525f60608401819052600380546001810182559152835160049091027fc2575a0e9e593c00f959f8c92f12db2869c3395a3b0502d05e2516446f71f85b810180549285166001600160a01b031993841617815595517fc2575a0e9e593c00f959f8c92f12db2869c3395a3b0502d05e2516446f71f85c8201805491909516921691909117909255519192917fc2575a0e9e593c00f959f8c92f12db2869c3395a3b0502d05e2516446f71f85d909101906103679082610c2a565b50606091909101516003909101805460ff1916911515919091179055604080513381526001600160a01b03841660208201527f9d059f2974f54d189c674390ed6d3028eed4be5dca3379edf2146596ab6f676a910160405180910390a15050565b604080516060810182528281525f60208083018281528385018381523380855260028452938690209451855590516001909401805491516001600160a81b0319909216941515610100600160a81b031916949094176101006001600160a01b03909216919091021790925582519081529081018390527f378881b5d2d0f50f0782bfc28c9194fbce3515be77236885f5256babb2e45c33910160405180910390a150565b600154156104b95760405162461bcd60e51b8152602060048201526016602482015275149bdb195cc8185b1c9958591e48185cdcda59db995960521b604482015260640160405180910390fd5b604080516101008101825260018152600260208201819052918101919091526003606082015260046080820152600560a0820152600660c0820181905260e08201525f5b60088110156105fa57604080514260208201529081018290525f90600890606001604051602081830303815290604052805190602001205f1c6105409190610cea565b90505f83836008811061055557610555610d09565b6020020151905083826008811061056e5761056e610d09565b602002015184846008811061058557610585610d09565b6020020190600681111561059b5761059b610af1565b908160068111156105ae576105ae610af1565b905250808483600881106105c4576105c4610d09565b602002019060068111156105da576105da610af1565b908160068111156105ed576105ed610af1565b90525050506001016104fd565b505f5b83518110156107a5576001604051806080016040528086848151811061062557610625610d09565b60200260200101516001600160a01b0316815260200184846008811061064d5761064d610d09565b6020020151600681111561066357610663610af1565b815260200160011515815260200185848151811061068357610683610d09565b602090810291909101810151151590915282546001810184555f938452928190208251930180546001600160a01b039094166001600160a01b031985168117825591830151929390929183916001600160a81b03191617600160a01b8360068111156106f1576106f1610af1565b0217905550604082015181546060909301511515600160b01b0260ff60b01b19911515600160a81b029190911661ffff60a81b199093169290921791909117905583517f4ac36fa53f167ceb85964be512e01de2a3b8bdb9862f917da079deeeff689b389085908390811061076857610768610d09565b602002602001015183836008811061078257610782610d09565b6020020151604051610795929190610d1d565b60405180910390a16001016105fd565b50505050565b600181815481106107ba575f80fd5b5f918252602090912001546001600160a01b038116915060ff600160a01b8204811691600160a81b8104821691600160b01b9091041684565b5f60208284031215610803575f80fd5b5035919050565b5f60018060a01b0380871683526020818716602085015260806040850152855191508160808501525f5b828110156108505786810182015185820160a001528101610834565b50505f60a0828501015260a0601f19601f830116840101915050821515606083015295945050505050565b80356001600160a01b0381168114610891575f80fd5b919050565b634e487b7160e01b5f52604160045260245ffd5b604051601f8201601f1916810167ffffffffffffffff811182821017156108d3576108d3610896565b604052919050565b5f80604083850312156108ec575f80fd5b6108f58361087b565b915060208084013567ffffffffffffffff80821115610912575f80fd5b818601915086601f830112610925575f80fd5b81358181111561093757610937610896565b610949601f8201601f191685016108aa565b9150808252878482850101111561095e575f80fd5b80848401858401375f848284010152508093505050509250929050565b5f67ffffffffffffffff82111561099457610994610896565b5060051b60200190565b5f82601f8301126109ad575f80fd5b813560206109c26109bd8361097b565b6108aa565b8083825260208201915060208460051b8701019350868411156109e3575f80fd5b602086015b84811015610a0c57803580151581146109ff575f80fd5b83529183019183016109e8565b509695505050505050565b5f8060408385031215610a28575f80fd5b823567ffffffffffffffff80821115610a3f575f80fd5b818501915085601f830112610a52575f80fd5b81356020610a626109bd8361097b565b82815260059290921b84018101918181019089841115610a80575f80fd5b948201945b83861015610aa557610a968661087b565b82529482019490820190610a85565b96505086013592505080821115610aba575f80fd5b50610ac78582860161099e565b9150509250929050565b5f60208284031215610ae1575f80fd5b610aea8261087b565b9392505050565b634e487b7160e01b5f52602160045260245ffd5b60058110610b1557610b15610af1565b9052565b60a08101610b278288610b05565b63ffffffff8616602083015267ffffffffffffffff85166040830152610b506060830185610b05565b82151560808301529695505050505050565b60078110610b1557610b15610af1565b6001600160a01b038516815260808101610b8f6020830186610b62565b921515604082015290151560609091015292915050565b600181811c90821680610bba57607f821691505b602082108103610bd857634e487b7160e01b5f52602260045260245ffd5b50919050565b601f821115610c2557805f5260205f20601f840160051c81016020851015610c035750805b601f840160051c820191505b81811015610c22575f8155600101610c0f565b50505b505050565b815167ffffffffffffffff811115610c4457610c44610896565b610c5881610c528454610ba6565b84610bde565b602080601f831160018114610c8b575f8415610c745750858301515b5f19600386901b1c1916600185901b178555610ce2565b5f85815260208120601f198616915b82811015610cb957888601518255948401946001909101908401610c9a565b5085821015610cd657878501515f19600388901b60f8161c191681555b505060018460011b0185555b505050505050565b5f82610d0457634e487b7160e01b5f52601260045260245ffd5b500690565b634e487b7160e01b5f52603260045260245ffd5b6001600160a01b038316815260408101610aea6020830184610b6256fea264697066735822122077535c2c209fcac641e65c7a3017415238faf197c8c8fa1cd2b5e89783af3ef564736f6c63430008170033","linkReferences":{}},"methodIdentifiers":{"assignRoles(address[],bool[])":"bbb82fcf","commitVote(bytes32)":"3e858923","nightActions(uint256)":"2a8a1dbe","phaseState()":"eb2a19ed","players(uint256)":"f71d96cb","queueNightAction(address,bytes)":"3a582497","votes(address)":"d8bff5a5"},"id":5}